:100000000C94430E0C94600E0C94600E0C94600ED5
:100010000C94600E0C94600E0C94600E0C94600EA8
:100020000C94600E0C94600E0C944A330C941D34A6
:100030000C94632C0C94600E0C94600E0C94600E67
:100040000C94600E0C94600E0C94600E0C94600E78
:100050000C94600E0C94002D0C94600E0C94600EA9
:100060000C94600E0C94600E0C94600E0C94600E58
:100070000C94600E0C94600E0C94600E0C94600E48
:100080000C94600E0C94600E0C94600E0C94600E38
:100090000C94600E0C94600E0C94600E0C94600E28
:1000A0000C94600E0C94600E0C94600E0000000026
:1000B0000000000000000000000000000000000040
:1000C0000000000000000000000000000000000030
:1000D0000000000000000000000000000000000020
:1000E0000000000000000000000000808040404050
:1000F00020202020201804020102040810202040A3
:1001000040808000000000000000000000000000AF
:1001100000000000000000000000000000000000DF
:1001200000000000000000000000000000000000CF
:1001300000000000000000000000000000000000BF
:1001400000000000000000000000000000000000AF
:100150000000000000000000000000000000003F60
:10016000C1010102020404040402020100000000B3
:10017000000000008000004080804000003030001F
:1001800000000001020404080810204080808080E4
:10019000404040402020202010101010080808087F
:1001A0000404040402020202010101010000000033
:1001B000000000000000000000000000000000003F
:1001C000000000000000000000000000000000002F
:1001D0000000000000000000000000000000E01827
:1001E0000601000000000000000000000080838382
:1001F000404040402021212010101010080808081D
:1002000004040404040830408080000001869860E3
:1002100000000000000000000000000000000000DE
:1002200000000000000000000000000000000000CE
:1002300000000000000000000000000000000000BE
:1002400000000000000000000000000080808080AE
:10025000404040402020202010101010080F0808B7
:1002600004040404020408101020204040414224E9
:100270001800000000000000000000000000000066
:10028000000000000000000000000101010000006B
:10029000000000000000000000000000000000005E
:1002A000000000000000000000000000000000004E
:1002B000000000000000000000000000000000003E
:1002C000000000000000000000000000000000002E
:1002D000000000000000000000000000000000001E
:1002E000000000000000000000000000000000000E
:1002F00000000000000000000000000000000000FE
:1003000000000000000000000000000000000000ED
:1003100000000000000000000000000000000000DD
:1003200000000000000000000000000000000000CD
:1003300000000000000000000000000000000000BD
:1003400000000000000000000000000000000000AD
:10035000000000000000000000000000000000009D
:1003600000000000000000000000808040404020AD
:1003700010080402010204081020408080000000E0
:10038000000000000000000000000000000000006D
:10039000000000000000000000000000000000005D
:1003A000000000000000000000000000000000004D
:1003B000000000000000000000000000000000003D
:1003C000000000000000000000000000000000002D
:1003D00000000000000000000000003FC101010219
:1003E00002040404040202010101000000000000F4
:1003F0000000008000008000006060000001020436
:100400000408081010202040808080804040404038
:1004100020202020101010100808080804040404EC
:1004200002020202010101010000000000000000C0
:1004300000000000000000000000000000000000BC
:1004400000000000000000000000000000000000AC
:1004500000000000000000000000C0300C0300009D
:100460000000000000000000008086864040404000
:100470002122222011111010080808080404040485
:100480000408304080800000018698600000000071
:10049000000000000000000000000000000000005C
:1004A000000000000000000000000000000000004C
:1004B000000000000000000000000000000000003C
:1004C000000000000000000080808080404040402C
:1004D0002020202010101010080F08080404040425
:1004E000020408101020204040414224180000005F
:1004F00000000000000000000000000000000000FC
:1005000000000000000001010100000000000000E8
:1005100000000000000000000000000000000000DB
:1005200000000000000000000000000000000000CB
:1005300000000000000000000000000000000000BB
:1005400000000000000000000000000000000000AB
:10055000000000000000000000000000000000009B
:10056000000000000000000000000000000000008B
:10057000000000000000000000000000000000007B
:10058000000000000000000000000000000000006B
:10059000000000000000000000000000000000005B
:1005A000000000000000000000000000000000004B
:1005B000000000000000000000000000000000003B
:1005C000000000000000000000000000000000002B
:1005D000000000000000000000000000000000001B
:1005E000000000000000808080804040201008044F
:1005F000020408102040808000000000000000007D
:1006000000000000000000000000000000000000EA
:1006100000000000000000000000000000000000DA
:1006200000000000000000000000000000000000CA
:1006300000000000000000000000000000000000BA
:1006400000000000000000000000000000000000AA
:10065000000000000000007E820202040408080876
:1006600008040402010100000000000000000080F6
:10067000000080000060600001010204040808100E
:10068000102020408080808040404040202020205A
:1006900010101010080808080404040402020202E2
:1006A0000101010100000000000000000000000046
:1006B000000000000000000000000000000000003A
:1006C000000000000000000000000000000000002A
:1006D000000000000000C0300C030000000000001B
:1006E00000000000008086864040404021222220F9
:1006F000111110100808080804040404040830400C
:10070000808000000186986000000000000000006A
:1007100000000000000000000000000000000000D9
:1007200000000000000000000000000000000000C9
:1007300000000000000000000000000000000000B9
:100740000000000080808080404040402020202029
:1007500010101010080F0808040404040204081004
:1007600010202040404142241800000000000000FA
:100770000000000000000000000000000000000079
:100780000000010101000000000000000000000066
:100790000000000000000000000000000000000059
:1007A0000000000000000000000000000000000049
:1007B0000000000000000000000000000000000039
:1007C0000000000000000000000000000000000029
:1007D0000000000000000000000000000000000019
:1007E0000000000000000000000000000000000009
:1007F00000000000000000000000000000000000F9
:1008000000000000000000000000000000000000E8
:1008100000000000000000000000000000000000D8
:1008200000000000000000000000000000000000C8
:1008300000000000000000000000000000000000B8
:1008400000000000000000000000000000000000A8
:100850000000000000000000000000000000000098
:1008600000008080808040402010080402040810AE
:100870002040808000000000000000000000000018
:100880000000000000000000000000000000000068
:100890000000000000000000000000000000000058
:1008A0000000000000000000000000000000000048
:1008B0000000000000000000000000000000000038
:1008C0000000000000000000000000000000000028
:1008D00000001C34C40404040808080808040402C6
:1008E0000101000000000000800000408080400006
:1008F0000030300001010202040404080810204006
:100900008080808040404040202020201010101027
:10091000080808080404040402020202010101019B
:1009200000000000000000000000000000000000C7
:1009300000000000000000000000000000000000B7
:1009400000000000000000000000000000000000A7
:100950000000E01806010000000000000000000098
:10096000008083834040404020212120101010103F
:1009700008080808040404040408304080800000CB
:1009800001869860000000000000000000000000E8
:100990000000000000000000000000000000000057
:1009A0000000000000000000000000000000000047
:1009B0000000000000000000000000000000000037
:1009C0008080808040404040202020201010101067
:1009D000080F080804040404020408101020204032
:1009E0004041422418000000000000000000000008
:1009F00000000000000000000000000000000101F5
:100A000001000000000000000000000000000000E5
:100A100000000000000000000000000000000000D6
:100A200000000000000000000000000000000000C6
:100A300000000000000000000000000000000000B6
:100A400000000000000000000000000000000000A6
:100A50000000000000000000000000000000000096
:100A60000000000000000000000000000000000086
:100A70000000000000000000000000000000000076
:100A80000000000000000000000000000000000066
:100A90000000000000000000000000000000000056
:100AA0000000000000000000000000000000000046
:100AB0000000000000000000000000000000000036
:100AC0000000000000000000000000000000000026
:100AD0000000000000000000000000808040404056
:100AE00020202020201804020102040810202040A9
:100AF00040808000000000000000000000000000B6
:100B000000000000000000000000000000000000E5
:100B100000000000000000000000000000000000D5
:100B200000000000000000000000000000000000C5
:100B300000000000000000000000000000000000B5
:100B400000000000000000000000000000060D3161
:100B5000C1010101020202040402020100000000BE
:100B60000000000080000040808040000030300025
:100B700000000001020404080810204080808080EA
:100B80004040404020202020101010100808080885
:100B90000404040402020202010101010000000039
:100BA0000000000000000000000000000000000045
:100BB0000000000000000000000000000000000035
:100BC0000000000000000000000000000000E0182D
:100BD0000601000000000000000000000080838388
:100BE0004040404020212120101010100808080823
:100BF00004040404040830408080000001869860EA
:100C000000000000000000000000000000000000E4
:100C100000000000000000000000000000000000D4
:100C200000000000000000000000000000000000C4
:100C300000000000000000000000000080808080B4
:100C4000404040402020202010101010080F0808BD
:100C500004040404020408101020204040414224EF
:100C6000180000000000000000000000000000006C
:100C70000000000000000000000001010100000071
:100C80000000000000000000000000000000000064
:100C90000000000000000000000000000000000054
:100CA0000000000000000000000000000000000044
:100CB0000000000000000000000000000000000034
:100CC0000000000000000000000000000000000024
:100CD0000000000000000000000000000000000014
:100CE0000000000000000000000000000000000004
:100CF00000000000000000000000000000000000F4
:100D000000000000000000000000000000000000E3
:100D100000000000000000000000000000000000D3
:100D200000000000000000000000000000000000C3
:100D300000000000000000000000000000000000B3
:100D400000000000000000000000000000000000A3
:100D50000000000000000000000080808040402073
:100D60002010080402040810102020404080800059
:100D70000000000000000000000000000000000073
:100D80000000000000000000000000000000000063
:100D90000000000000000000000000000000000053
:100DA0000000000000000000000000000000000043
:100DB0000000000000000000000000000000000033
:100DC00000000000000000000000003FC10101021F
:100DD000020484444442820101010000000000003A
:100DE00080000040808040000030300000000001A2
:100DF0000264180412C2CA2488F080804040404037
:100E000020202020101010100808080804040404F2
:100E100002020202010101010000000000000000C6
:100E200000000000000000000000000000000000C2
:100E300000000000000000000000000000000000B2
:100E400000000000000000000000E01806010000A3
:100E50000C03000218190005FE80838340404040C7
:100E60002021212010101010080808080404040490
:100E70000202020201010101000000000000000066
:100E80000000000000000000000000000000000062
:100E90000000000000000000000000000000000052
:100EA0000000000000000000000000000000000042
:100EB0000000000000000000808080804040404032
:100EC0002020202010101010080F0808040404042B
:100ED0000202020201010101000000000000000006
:100EE0000000000000000000000000000000000002
:100EF00000000000000000000000000000000000F2
:100F000000000000000000000000000000000000E1
:100F100000000000000000000000000000000000D1
:100F200000000000000000000000000000000000C1
:100F300000000000000000000000000000000000B1
:100F400000000000000000000000000000000000A1
:100F50000000000000000000000000000000000091
:100F60000000000000000000000000000000000081
:100F70000000000000000000000000000000000071
:100F80000000000000000000000000000000000061
:100F90000000000000000000000000000000000051
:100FA0000000000000000000000000000000000041
:100FB0000000000000000000000000000000000031
:100FC0000000000000000000000000000000000021
:100FD00000000000000080808040402020100804B5
:100FE0000204081010202040408080000000000013
:100FF00000000000000000000000000000000000F1
:1010000000000000000000000000000000000000E0
:1010100000000000000000000000000000000000D0
:1010200000000000000000000000000000000000C0
:1010300000000000000000000000000000000000B0
:10104000000000000000003FC1010102020404048E
:1010500004020201010100000000000080000040C5
:10106000808040000030300000000001026418045D
:1010700012C2CA2488F080804040404020202020B6
:1010800010101010080808080404040402020202E8
:10109000010101010000000000000000000000004C
:1010A0000000000000000000000000000000000040
:1010B0000000000000000000000000000000000030
:1010C000000000000000E018060100000000000021
:1010D0000000000000808383404040402021212008
:1010E0001010101008080808040404040202020288
:1010F00001010101000000000000000000000000EC
:1011000000000000000000000000000000000000DF
:1011100000000000000000000000000000000000CF
:1011200000000000000000000000000000000000BF
:10113000000000008080808040404040202020202F
:1011400010101010080F080804040404020408100A
:10115000102020404041422498C088888C9C1C1E4E
:101160000E0600000000000000000000000000006B
:10117000000000000000000000000000000000006F
:10118000000000000000000000000000000000005F
:10119000000000000000000000000000000000004F
:1011A000000000000000000000000000000000003F
:1011B000000000000000000000000000000000002F
:1011C000000000000000000000000000000000001F
:1011D000000000000000000000000000000000000F
:1011E00000000000000000000000000000000000FF
:1011F00000000000000000000000000000000000EF
:1012000000000000000000000000000000000000DE
:1012100000000000000000000000000000000000CE
:1012200000000000000000000000000000000000BE
:1012300000000000000000000000000000000000AE
:10124000000000000000000000000000000000009E
:101250000000808080404020201008040204081014
:1012600010202040408080000000000000000000AE
:10127000000000000000000000000000000000006E
:10128000000000000000000000000000000000005E
:10129000000000000000000000000000000000004E
:1012A000000000000000000000000000000000003E
:1012B000000000000000000000000000000000002E
:1012C0000000003FC1010102020484444442820143
:1012D000010100000000000080000040808040000C
:1012E0000030300000000001020404080810204013
:1012F000808080804040404020202020101010102E
:1013000008080808040404040202020201010101A1
:1013100000000000000000000000000000000000CD
:1013200000000000000000000000000000000000BD
:1013300000000000000000000000000000000000AD
:101340000000E018060100000C0300021819000557
:10135000FE80838340404040202121201010101047
:1013600008080808040404040408304080800000D1
:1013700001869860000000000000000000000000EE
:10138000000000000000000000000000000000005D
:10139000000000000000000000000000000000004D
:1013A000000000000000000000000000000000003D
:1013B000808080804040404020202020101010106D
:1013C000080F0808040404040202020201010101DA
:1013D000000000000000000000000000000000000D
:1013E000000000060F0F07030361F0F8FC60010125
:1013F000013C78F8F07000000000000000000000E0
:1014000000000000000000000000000000000000DC
:1014100000000000000000000000000000000000CC
:1014200000000000000000000000000000000000BC
:1014300000000000000000000000000000000000AC
:10144000000000000000000000000000000000009C
:10145000000000000000000000000000000000008C
:10146000000000000000000000000000000000007C
:10147000000000000000000000000000000000006C
:1014800000000000000000000000000020202020DC
:101490002000434150530057504D3A200000002493
:1014A00000250026002A0000002100220023002938
:1014B0000000001E001F0020002B00A800C15227C2
:1014C00000372228000000010001000100007C001C
:1014D00000010001000100570000000100010001AF
:1014E000005600597C0100010001002E000000019F
:1014F00000010001000100000001000100010001E5
:1015000000000001000100010001000100010001D4
:1015100000010001000000010001000100010000C5
:1015200000010001000100010000000100010001B4
:101530000001000100010001000100010000AE00F7
:10154000AF00DA0281FFD9F1DB20A4A62EAF00A004
:10155000C0D30000A1C8D30000AED580A81F408D25
:1015600014200007087F0807003E5B4F5B3E003EEB
:101570006B4F6B3E001C3E7C3E1C00183C7E3C18B2
:10158000001C577D571C001C5E7F5E1C0000183C31
:10159000180000FFE7C3E7FF00001824180000FF51
:1015A000E7DBE7FF0030483A060E002629792926B6
:1015B00000407F05050700407F05253F005A3CE7B6
:1015C0003C5A007F3E1C1C0800081C1C3E7F001477
:1015D000227F2214005F5F005F5F0006097F017FAA
:1015E00000006689956A0060606060600094A2FFF8
:1015F000A2940008047E04080010207E2010000839
:10160000082A1C0800081C2A0808001E10101010C8
:10161000000C1E0C1E0C0030383E383000060E3E0A
:101620000E060000000000000000005F0000000047
:101630000700070000147F147F1400242A7F2A1259
:101640000023130864620036495620500000080742
:10165000030000001C224100000041221C00002A5F
:101660001C7F1C2A0008083E08080000807030001B
:10167000000808080808000000606000002010084A
:101680000402003E5149453E0000427F4000007286
:1016900049494946002141494D33001814127F1031
:1016A000002745454539003C4A494931004121114F
:1016B000090700364949493600464949291E0000B4
:1016C0000014000000004034000000000814224113
:1016D00000141414141400004122140800020159CB
:1016E0000906003E415D594E007C1211127C007FBC
:1016F00049494936003E41414122007F4141413E36
:10170000007F49494941007F09090901003E4141E3
:101710005173007F0808087F0000417F41000020CE
:1017200040413F01007F08142241007F404040407B
:10173000007F021C027F007F0408107F003E4141B1
:10174000413E007F09090906003E4151215E007FAC
:10175000091929460026494949320003017F01033E
:10176000003F4040403F001F2040201F003F4038C6
:10177000403F00631408146300030478040300610D
:1017800059494D4300007F414141000204081020A7
:1017900000004141417F000402010204004040403A
:1017A0004040000003070800002054547840007FA8
:1017B0002844443800384444442800384444287FAE
:1017C0000038545454180000087E09020018A4A4DC
:1017D0009C78007F080404780000447D40000020CD
:1017E00040403D00007F102844000000417F400041
:1017F000007C04780478007C0804047800384444B1
:10180000443800FC182424180018242418FC007CF8
:10181000080404080048545454240004043F442499
:10182000003C4040207C001C2040201C003C4030FC
:10183000403C004428102844004C9090907C004488
:1018400064544C440000083641000000007700005A
:10185000000041360800000201020402003C262379
:10186000263C00000000000000404040F0F8F8FF77
:1018700038FFF8F83FF8F8FF38FFF8F8F04040403C
:1018800000000000000080C0C0C0800000C0C08018
:1018900000000080C0C000C0C0000080C0C00000C8
:1018A000000000C0C0C0C0C000C0C00000000000F8
:1018B0000000000000000000000000000000000028
:1018C0000000000000000000000000000000000018
:1018D0000000000000000000000000000000000008
:1018E0000000C0F0F8FC3E1E06010000007F4141F0
:1018F000417F007F4141417F000080C0E07E5B4F1F
:101900005BFEC00000C000DCD7DEDEDED7DC00C03E
:1019100000000000000000000000000000000000C7
:10192000000000000000000000494949FFFFFFFFE0
:10193000E0DFBFBF00BFBFDFE0FFFFFFFF49494956
:1019400000000000001F3F6060E0BF1F007F7F07B6
:101950001E381E077F7F007F7F0E1F3B71600000D7
:101960000000007F7F0C0C0C007E7E007F7E030356
:10197000007F7E03037E7E03037F7E000F3E703C6C
:10198000063C703E0F00327B49493F7E007F7E035C
:1019900003001E3F69696F26000000000000000080
:1019A0000000030F1F3F3C7870600000007F414142
:1019B000417F007F4141417F00307B7F7830202094
:1019C00030787F3B0003000F7F0F0F0F7F0F000366
:1019D0000000000000000000000000000000000007
:1019E000000000000000000000010101070F0F7F50
:1019F0000F7F0F0F7E0F0F7F0F7F0F0F070101016A
:101A000000000000000000000000010100000000D4
:101A100000000000000000000000000000000000C6
:101A200000000000000000000000000000000000B6
:101A300000000000000000000000000000000000A6
:101A40000000000000000000000000000000000096
:101A50000000000000000000000000000000000086
:101A60000000000000000000000000000000000076
:101A70000000000000000000000000000000000066
:101A80000000000000000000000000000000000056
:101A90000000000000000000000000000000000046
:101AA00000000000000000000000002A2B280000B9
:101AB00000000000000000000000000000002900FD
:101AC0000000002C1E3420212224342627252E3607
:101AD0002D3738271E1F2021222324252633333675
:101AE0002E37381F0405060708090A0B0C0D0E0FC8
:101AF000101112131415161718191A1B1C1D2F314B
:101B000030232D350405060708090A0B0C0D0E0FAE
:101B1000101112131415161718191A1B1C1D2F312A
:101B200030354C0000000000000000000000000004
:101B300000000000000000000000000000000000A5
:101B4000000000000000007E0F00D4FFFFFFC70070
:101B50000000781003640075006D00620070006181
:101B60000064000000160369006D006300680069EE
:101B700000700077006F006F00640000000403092C
:101B80000409025B00030100A0FA0904000001033C
:101B90000101000921110100012244000705810310
:101BA00008000109040100020300000009211101DD
:101BB000000122220007058203200001070503031C
:101BC00020000109040200010300000009211101A5
:101BD00000012232000705840320000112010002E7
:101BE00000000008AFDE13090100010200010660D9
:101BF000FF0961A1010962150026FF009520750803
:101C000081020963150026FF00952075089102C026
:101C100005010980A101850319012AB700150126D4
:101C2000B700950175108100C0050C0901A101855F
:101C30000419012AA002150126A002950175108140
:101C400000C005010906A101050719E029E71500F3
:101C50002501950875018102950175088101050727
:101C6000190029FF150026FF00950675088100055B
:101C700008190129051500250195057501910295A1
:101C80000175039101C011241FBECFEFDAE0DEBF62
:101C9000CDBF11E0A0E0B1E0EEEBFEE602C00590A2
:101CA0000D92AC3DB107D9F725E0ACEDB1E001C034
:101CB0001D92A132B207E1F70E94161F0C9417374C
:101CC0000C9400000E94CD298531E8F48091DF0159
:101CD00090E0019665E070E00E94EB358093DF01B3
:101CE00024E030E0281B390B4CE752E0249FC00170
:101CF000259F900D349F900D11246CE772E0845560
:101D00009F4F0E94D0200E94CD29853150F00E9423
:101D1000CD298E3130F46CE772E088E19DE00E94BD
:101D2000D0200E94CD298E3188F08091DE0190E094
:101D30000196817099278093DE0101978C779270CC
:101D40006CE772E08C56904F0E94D02008951F934C
:101D5000CF93DF93D82FC62F0E94D922182F811539
:101D600041F0D1110BC08AEAC11101C089EA0E9479
:101D70002312812FDF91CF911F910895D130C9F7A0
:101D80008BEAC111F4CF8CEAF2CFCF93DF930E949C
:101D90004222C82F811509F499C00E94CD298115CE
:101DA00009F463C00E9415216091E4017091E5017E
:101DB0008091E6019091E7010E94EA2C693C71054F
:101DC0008105910560F00E94CF2C6093E40170932F
:101DD000E5018093E6019093E7010E94620E0E9464
:101DE000CF2C6093E0017093E1018093E201909326
:101DF000E30160E080E00E94C61F60E087E994E1B3
:101E00000E94BE200E94CD2960E30E94FA1060E08B
:101E10000E94A32060E086EF92E00E94A3200E942F
:101E2000112BD82F61E080E00E94C61F82E994E167
:101E3000D1FD02C08CE894E160E00E94BE2062E027
:101E400080E00E94C61F8091FC010E941C1182301C
:101E500009F446C0C8F581113DC00E94152160E01B
:101E60008CE191E00E94A32031C06091E00170916B
:101E7000E1018091E2019091E3010E94EA2C613638
:101E80007A4E8105910518F00E942522B2CF60910B
:101E9000E4017091E5018091E6019091E7010E94D3
:101EA000EA2C693C71058105910508F4A2CF0E94D6
:101EB000CF2C6093E4017093E5018093E601909349
:101EC000E7010E94620E95CF833081F08C2FDF9165
:101ED000CF9108950E94152160E084E291E0C2CF85
:101EE0000E94152160E08CE291E0BCCF0E94152198
:101EF00060E085E391E0B6CF982F962B9430A8F45C
:101F0000453098F4E42FF0E095E0699FE00DF11D75
:101F1000112494E1899FE00DF11D1124EE0FFF1FA4
:101F2000E356FB4E85919491089581E090E00895E9
:101F300081E008950E94980F089581E0089581E05E
:101F400008950E949F0F089508950E94A40F089578
:101F5000A6E0B0E0EEEAFFE00C946F3649835A83C6
:101F60009E833091F20189819A8131111AC03E819C
:101F7000311599F0211589F00E94B815182F682F96
:101F800089819A810E94941569817A81812F0E94AA
:101F9000BF1C2696E3E00C948B360E94A615182FE2
:101FA000F3CF0E94B81569817A81F1CFFC01262F09
:101FB0004081518162817381848195810E94A80F43
:101FC0000895CF93DF93D82FC92F61E00E94D60FD9
:101FD0006D2F7C2F0E949A0FDF91CF910895CF93A0
:101FE000DF93D82FC92F60E00E94D60F6D2F7C2F72
:101FF0000E94A50FDF91CF91089591E001C0990F44
:102000008A95EAF7892F0E94D6140895CF93C82F96
:1020100081E00C2E01C0880F0A94EAF70E94031A8F
:102020008C2F0E94FD0FCF91089581E008950E94AA
:1020300015100895CF93C82F0E9482148C2F0E94F0
:1020400017102FEF84E39CE0215080409040E1F78F
:1020500000C00000CF91089581E00E941A100E94F4
:10206000242D089580E00E941A100E94352D0895B5
:102070000F931F93CF93DF938C0161E00E94D60FE3
:10208000EC01F8018581811519F0CE010E94EC293F
:10209000B801CE010E94E428811509F449C0B801B5
:1020A000CE010E94A10F811509F442C0B801CE01F2
:1020B0000E94FE278115E1F1B801CE010E94AF25F3
:1020C0008115B1F1B801CE010E948425811581F1FD
:1020D000B801CE010E944028811551F1B801CE010E
:1020E0000E94C21D811521F1F8018581811581F0C1
:1020F000CA35FCE7DF0739F178F4C130ECE7DE07D9
:10210000F9F0C330FCE7DF07C9F0C115DC4771F017
:10211000C8010E949D0F0DC0CB35ECE7DE07B1F082
:10212000CC35DC47A9F70E94D519F2CF0E942C10BC
:1021300080E0DF91CF911F910F9108950E94E619E1
:102140000E943210F5CF0E94DE19E2CF0E94E21900
:10215000DFCF0E94402C0E9445110E942522089545
:102160000E9449110E94452C08954F925F926F92F0
:102170007F92AF92BF92CF92DF92EF92FF920F9336
:10218000CF93DF935C0129013A01615071097B0112
:10219000EC01C60FD71F1882C12CD12CCE14DF043E
:1021A00078F0C501DF91CF910F91FF90EF90DF9014
:1021B000CF90BF90AF907F906F905F904F900895B9
:1021C000C301B2012AE030E040E050E00E94FF3558
:1021D000605D603341F4C114D10429F045284628DC
:1021E000472809F4602F6A9329013A018FEFC81A32
:1021F000D80AD4CF0F93CF93DF93062F909100018D
:10220000981306C09091EC01C8EED1E0961779F0D2
:10221000809300010093EC01282F30E040E050E073
:1022200064E070E088EE91E00E94B510EC01CE0110
:10223000DF91CF910F910895982F92959F7024E090
:10224000911102C020E0982F892F869586958115DF
:1022500011F02E5F982F892F8695820F089581E0C7
:1022600008950895CF93DF93D82F0E942F11C82F80
:10227000811519F08D2F0E9431118C2FDF91CF9194
:10228000089508950E943211089580E00E9442113D
:1022900008950E94042B0E9442110895CF930E943A
:1022A000042BC82F8091ED018C1779F0C093ED01BC
:1022B0000E94CF2C6093EE017093EF018093F001A8
:1022C0009093F1018C2F0E944211CF910895ADE0BF
:1022D000B0E0EDE6F1E10C947036488759876A87E3
:1022E0007B878C879D8791110E9411191F8286E040
:1022F000FE013896DE01119601900D928A95E1F764
:102300008D8181110DC029813A814B815C816D8164
:102310007E818F810E945B182D96E2E00C948C36B2
:10232000CE0101960E94E10F8111EDCFF5CFFC01A6
:102330008481813021F4808191810E94E11508958A
:10234000CF93C82F811599F08CEF8C0F813A88F4C8
:102350008C2F0E947F2B811529F08C2F0E94C32B7C
:102360000E9482198C2F0E94BB2B0E948219CF9150
:10237000089580E28C0F883048F4C77081E001C076
:10238000880FCA95EAF70E94F218EFCF8BE58C0F01
:10239000833038F42C2F2452330BC9010E941F2B99
:1023A000E6CFC85ACB3118F7EC2FF0E0EE0FFF1F45
:1023B000E45CFE4F808191810E94452BD8CF81152E
:1023C00039F19CEF980F913A28F40E94C32B0E9498
:1023D0008219089590E2980F983050F4877091E038
:1023E00001C0990F8A95EAF7892F0E94F818EFCF5C
:1023F0009BE5980F933028F480E090E00E941F2B1B
:102400000895885A8B3120F480E090E00E94452B9B
:1024100008950F931F93CF93C82F8B010E94A01193
:102420000115110539F48C2F0E94DF11CF911F91F6
:102430000F9108958FE99FE00197F1F700C0000028
:1024400001501109EDCF60E570E0893311F060E0D3
:1024500070E00E9409120895811521F00E94F2187F
:102460000E9482190895811521F00E94F8180E9497
:1024700082190895A0E0B0E0E0E4F2E10C946A363D
:102480006C01D62FC72FFC010581F680F2948FE0F6
:10249000F8220E94E718E82E8115F9F0E02E0115C8
:1024A000E1F08C2F807F803461F080E28D0F8830E6
:1024B000A0F18C2F807E803221F4D23070F1F114A3
:1024C00061F18091010382FF28C082E00E94A81977
:1024D0000E94E71891E0E82EE9268C2F82958F70F4
:1024E000883009F4E7C0B0F58430C8F41C2F1F70A1
:1024F000823008F440C0C07FC03211F01295107FC6
:10250000D11509F467C0D13009F497C0011509F459
:10251000A3C0F11409F47AC041C0E12CDECF8430AD
:1025200009F4ABC0E11489F00E94E31880FD0DC0EE
:10253000F60115820E94DD180E940315C6010E9453
:102540004D140E94DD180E940F15CDB7DEB7E8E0EC
:102550000C948636893009F41AC18A5F8F708230F4
:1025600008F7D23F09F024C18C2F8F7101111DC1D2
:102570000E940315C9C0C03110F01295107F0115DB
:1025800099F0111559F080E28D0F883010F0D111BB
:1025900007C0812F0E94F2180E9482198D2F28C037
:1025A000812F0E940319F8CF8D2F0E94DF11111582
:1025B00009F4B8CF80E28D0F883010F0D11104C03B
:1025C000812F0E94F81803C0812F0E9409190E94D0
:1025D0008219A8CF8091010382FD14C0011559F022
:1025E000111529F0812F0E94F2180E94821980E0B3
:1025F0000E94A01197CF80E00E94DF11111509F40D
:1026000091CFDECF011569F0F11004C0812F0E9437
:102610002C1288CFF1E0FF1285CF812F0E9429195B
:1026200081CFF1107FCF812F0E943312812F0E9422
:102630003519812F0E94181975CF011529F023E053
:10264000F21608F06FCFE2CF82E0F81608F06ACFFA
:10265000812F0E94331266CFF114D1F3D93349F49C
:102660009FEFE7EEF3E09150E040F040E1F700C06B
:1026700000008D2F0E94DF1155CF8C2F86958695F7
:102680008370811569F0813009F04CCF8D2F9C2F1C
:102690009370011102C080E090E00E94452B42CF70
:1026A0008D2F9C2F9370011102C080E090E00E945A
:1026B0001F2B38CF8C2F8370811134C0011124C09F
:1026C0004D2F429546954770440F440F8D2F8F70C4
:1026D000042E01C0880F0A94EAF72D2F2071D4FF31
:1026E00007C02FE030E001C0220F4A95EAF720959D
:1026F000C695C695C370822BC23071F0C33079F095
:10270000C13039F00E94DF140E94042B0E94421154
:1027100009CF0E94D914F8CF0E94E514F5CF0E948A
:10272000D614F2CF011539F1C0FFEECF4D2F4295EF
:1027300046954770440F440F8D2F8F70042E01C0B3
:10274000880F0A94EAF72D2F2071D4FF07C02FE0DD
:1027500030E001C0220F4A95EAF72095C695C6954C
:10276000C370822BC23069F0C33071F0C13031F0D8
:102770000E943115C9CF823038F2D8CF0E942B1574
:10278000C3CF0E943715C0CF0E94F114BDCFCF70C8
:10279000011539F08C2F0E9403158D2F0E942C12E9
:1027A000B3CF8D2F0E9433128C2F0E940F15ACCF08
:1027B00068F4D03FC1F0D13F89F0011509F441C060
:1027C000F114E1F18D2F0E94A0119ECFD33FC9F0EB
:1027D000D43F99F78091010382FD1DC08C2F8F712A
:1027E000011519F3C5CE011549F022E0F21608F0E3
:1027F0008BCF8C2F8F710E941F1586CF83E0F81628
:10280000F6CF011529F08C2F8F710E94FA147CCF1E
:102810000E94F61479CF011531F063E08C2F8F718F
:102820000E94891971CF81E00E94A81992E0F916DF
:1028300008F46ACF82E00E94A81966CF8C2F8F71AE
:1028400097CEF11479F0D93349F4EFEFF7EE23E0A6
:10285000E150F0402040E1F700C000008D2F0E94C1
:10286000DF1152CF8C2F8F71A0CF0F931F93CF9377
:10287000DF93EC01688179818D810E94EE158C01D6
:102880000E943D150E94D514B801CE010E943A1253
:10289000DF91CF911F910F910895CF93DF93EC01BA
:1028A0008C81811599F0CE010E943810811111C0E0
:1028B0000E94E718811551F08D81811539F08091C2
:1028C000010382FF03C082E00E94A819DF91CF912B
:1028D0000895CE010E943514CE010E94EF0FF6CF6D
:1028E00080E090E00E941F2B80E090E00E94452B4A
:1028F0000E9411190E94821908950E94CB2B0E94F8
:10290000701408950E9400190E947D140895282FC4
:1029100092959F70963099F060F4925F9F7092301C
:1029200030F4203FB1F038F481E0283E38F080E008
:1029300008959A5FF3CF81E0243FC9F7089591E0AD
:10294000813F09F090E081E0283E08F080E0892B8B
:10295000089581E00895FC018481811539F080811A
:1029600091810E94E1150E948714089580E00895E6
:10297000A6E0B0E0EEEBF4E10C9470362696E2E0CF
:102980000C948C36A7E0B0E0E8ECF4E10C947036DF
:102990002796E2E00C948C3608950E94CC1408959A
:1029A0000E94CD148093FD01089508950E94D014D3
:1029B00008959091FD01892B0E94D0140895909163
:1029C000FD0189230E94D01408959091FD0189276B
:1029D0000E94D01408950E94CC1408950E94EB1414
:1029E00008950E94EE148093FC01089580E00E94F7
:1029F000F114089591E001C0990F8A95EAF7892FA3
:102A00000E94F114089521E030E001C0220F8A9560
:102A1000EAF78091FC01822B0E94F114089521E0D5
:102A200030E0A90102C0440F551F8A95E2F7CA01A0
:102A300080959091FC0189230E94F114089521E072
:102A400030E001C0220F8A95EAF78091FC018227CD
:102A50000E94F11408959091FC01892B0E94F114B9
:102A600008959091FC0189230E94F114089590919A
:102A7000FC0189270E94F114089508959B01677055
:102A800091E001C0990F6A95EAF763E036952795C2
:102A90006A95E1F7B901660F771F260F371FFA0114
:102AA000E20FF31F40E050E0682F70E08191DF01FA
:102AB0009B01042E02C0369527950A94E2F72170F7
:102AC00021952827292328272E934F5F5F4F4330D6
:102AD000510561F708959C01A82FA77083E03695F2
:102AE00027958A95E1F7C901880F991F820F931FD7
:102AF000FB01E80FF91F40E050E080E0219130E059
:102B00000A2E02C0369527950A94E2F721703327E2
:102B1000042E01C0220F0A94EAF7822B4F5F5F4F09
:102B20004330510559F70895282F862F943068F4C3
:102B3000253058F4622F70E025E0929F600D711DE2
:102B4000112443EF51E00E943E150895292F94303F
:102B500068F4853058F490E063EF71E035E0239F2E
:102B6000800D911D11240E946B15089580E0089539
:102B7000A0E0B0E0EEEBF5E10C946B367C01009147
:102B8000FC018091FD01082BC3E0D0E010E0C801FA
:102B90000C2E02C0959587950A94E2F780FD09C036
:102BA0002197A8F7D12C8D2DCDB7DEB7E7E00C9497
:102BB0008736DC2EB7018C2F0E94CB1C019781F346
:102BC000F2CFCF93DF93D82FC92F0E94B8156D2F66
:102BD0007C2F0E94CB1CDF91CF9108951F93CF9340
:102BE000DF93162FD72F9091F201911541F0862F88
:102BF000972F0E94E115DF91CF911F9108958115C4
:102C000081F0862F972F0E94B815C82F682F812F2B
:102C10009D2F0E949415612F7D2F8C2F0E94CB1C1D
:102C2000EACF862F972F0E94A615C82FF4CFE1E098
:102C3000F0E0DF0102C0AA0FBB1F6A95E2F7BD01F9
:102C4000DF0102C0AA0FBB1F4A95E2F76A2B01C041
:102C5000EE0F2A95EAF7962F9823961302C08E2B33
:102C60000895E0958E230895242F462F682F809194
:102C7000FC010E9417160E94F11408950F931F93F0
:102C8000CF93E091FE01C7E08091FF018E1304C055
:102C9000CF911F910F9108950E2F10E0CE9FF0015C
:102CA0001124E050FE4F20813181428153816481A3
:102CB000758186810E94C214F8013196E770E4CFD5
:102CC000209138023091390240913A0250913B02F2
:102CD00060913C0270913D0280913E020E94C214BC
:102CE000089580913E02803178F480913D028115F3
:102CF00059F0E091FE012091FF013091390240919D
:102D0000380257E02E1301C008956E2F70E05E9FC9
:102D1000F0011124DF01A050BE4F14968C9114973E
:102D2000811561F111968C911197831327C08C91B5
:102D3000841324C015968C91159781111FC012968B
:102D40008D919C91A0913A02B0913B028A1B9B0B02
:102D5000883C910598F480913E028F708061809349
:102D60003E02EA5FFD4F80818F708061808388E33F
:102D700092E00E944D140E943E160895FB01319688
:102D8000E770C0CFE091FE019091FF0127E0E913C9
:102D900002C080E00895AE2FB0E02E9FF001112414
:102DA000E050FE4F3181361306C03081381303C026
:102DB0003581341304C0FD013196E770E8CF81E01E
:102DC00008958F929F92AF92BF92DF92EF92FF92FF
:102DD0000F931F93CF93DF93CDB7DEB72D970FB629
:102DE000F894DEBF0FBECDBF8C0186E0F801DE0196
:102DF000189601900D928A95E1F7F801F58084818B
:102E000098E3892E92E0992E90913C0291111BC07B
:102E1000811509F4FFC0F11409F440C1C8010E94F2
:102E2000AB14811509F43AC187E0F801D40101908F
:102E30000D928A95E1F7C4010E9497110E947116C4
:102E40000E946016E7C0E080A280B380D0903D026F
:102E500020913A0230913B02A501421B530BD11441
:102E600009F4DBC0483C510508F0A6C0811509F4FF
:102E7000D1C090913902918080913E02803108F05A
:102E80006BC0991228C0909138029E1124C0F11095
:102E90005DC08F70806180933E020E94601688E35F
:102EA00092E00E944D1480913E02F8018683F12C3D
:102EB0008F2D2D960FB6F894DEBF0FBECDBFDF91DC
:102EC000CF911F910F91FF90EF90DF90BF90AF9047
:102ED0009F908F900895F11039C040E0692D8E2D9C
:102EE0000E94C21640E0692D8E2D0E94C216F82E57
:102EF0008111DDCF888599850E94E115292F2295C2
:102F00002F70903450F49F70223080F0911599F01A
:102F1000F8019681903178F4CBCF2A5F2F70223060
:102F200078F0C8010E944D14FD2CC2CF911519F004
:102F3000811509F4BDCF805E883008F4B9CFF1CF98
:102F4000803F08F4B5CF815F8330F7CF80913E0298
:102F5000816080933E02ABCF991207C090913802F6
:102F60009E1103C0F11409F479C0C8010E94AB148A
:102F7000811509F493C0F11409F490C080913E02C8
:102F8000803288F020913802309139023A832983C7
:102F9000BC82AB8290913C029D831E828F83CE01C6
:102FA00001960E944D1487E0F801A8E3B2E0019079
:102FB0000D928A95E1F742CF90913E029031A0F4B4
:102FC000488559856A857B858C859D850E94B814C6
:102FD00088E392E00E944D1487E0F40111928A95F3
:102FE000E9F70E94601663CF8115A1F020913902A4
:102FF00081812813BACF809138028E11B6CFF1109B
:10300000B4CF9683C8010E944D1487E0F401119259
:103010008A95E9F7FF24F3944BCF483C510508F01B
:1030200041C08115B9F3F114C9F190913902818140
:1030300098132AC0809138028E1126C080913E02DA
:1030400080FD19C08031B8F08683807F803F39F0E1
:103050008681982F907F905F8F70892B8683C8011F
:103060000E944D1487E0F801A8E3B2E001900D92B0
:103070008A95E1F7E5CE87E0F801A8E3B2E0019098
:103080000D928A95E1F7C6CFC8010E94AB14811159
:103090008ACF80913E02816080933E02C8010E94E7
:1030A0004D14B8CF488559856A857B858C859D856B
:1030B0000E94B81491CFAEE0B0E0E1E6F8E10C94E4
:1030C0006F36288739874A875B876C877D878E872D
:1030D000CE0108960E94E1166C858115A9F0611554
:1030E00041F0288539854A855B857D858E850E94DE
:1030F000C21417E08091FE019091FF0189133AC03C
:103100002E96E3E00C948B3687E0FE013896DE01C4
:10311000119601900D928A95E1F7611551F3A091F6
:10312000FF018A2F90E00196877099272091FE0178
:103130002817190689F097E09A9FD0011124A05012
:10314000BE4FFE01319601900D929A95E1F7809362
:10315000FF010E943E16CDCF0E9482141092FF0103
:103160001092FE0187E0E8E3F2E0DF011D928A950C
:10317000E9F7BFCF189FC001112480509E4F0E94D5
:10318000E116811509F4BCCFE091FE011E9FF0010C
:103190001124E050FE4F20813181428153816481AE
:1031A000758186810E94C2148091FE0190E0019693
:1031B000877099278093FE019DCF80914702869565
:1031C000869586950895809147028770089590911D
:1031D0004702977081E0911101C080E008958091CD
:1031E0005302089590915302982B9093530208959F
:1031F000982F9095809153028923809353020895CC
:1032000010925302089590915202982B909352027B
:103210000895982F909580915202892380935202AD
:10322000089510925202089508950E941419089565
:1032300090914802292F2823211531F08095892368
:10324000809348020E941519089508950E94251937
:10325000089590914902292F2823281729F0982BA7
:10326000909349020E942619089590914902292FAE
:103270002823211531F080958923809349020E94EB
:103280002619089580914902811529F0109249026A
:1032900080E00E94261908950F931F93CF93DF9328
:1032A0000091010110910201C091530280915202DC
:1032B000C82B80914902811531F0C82B0E946B2BDD
:1032C00081110E944219F801C083C0910101D0917F
:1032D000020148E050E06FE372E0CE010E94AF3699
:1032E000892B59F088E0FE01AFE3B2E001900D9226
:1032F0008A95E1F7CE010E94142BDF91CF911F91A7
:103300000F9108950E944C19089508950E948519FF
:103310000895962F2091010322FF11C0682F660F98
:10332000660F660F692B609347020E940315809118
:1033300047028695869586950E94861908950E9473
:10334000031508951092470280E00E94861908959F
:10335000909147028095892380934702282F2770F8
:1033600021110DC0891759F09091010392FF07C0F8
:103370008695869586950E940F150E94A21908953C
:103380009091010392FB222720F9281769F080FB16
:1033900092F99093010380910003909101030E94A0
:1033A0000E1A82E00E94A81908958091010300245A
:1033B00082FF0394802D0E94C019089581E00E942D
:1033C000C019089580E00E94C01908956FEF7FEF43
:1033D00080E090E00E940137089580E090E00E9434
:1033E000CD36853E9E4F19F40E947B28089580E0DB
:1033F000089582E090E00E94C536089583E090E051
:103400000E94C5360895682F83E090E00E94E3365D
:10341000089584E090E00E94CD360895BC0184E0D8
:1034200090E00E9401370895AB01BC018FE090E06D
:103430000E94F5360895AB01BC0183E190E00E9443
:10344000F536089560E070E0CB010E941B1A0895E4
:1034500060E070E0CB010E94141A0E94221A0895C5
:10346000A8E0B0E0E6E3FAE10C94703665EE7EEF9A
:1034700080E090E00E94013760E082E090E00E94EE
:10348000E33681E08093FD010E94031A60E074E15D
:1034900084E090E00E94013760E086E090E00E94C6
:1034A000E33660E087E090E00E94E33640E050E0E1
:1034B000BA0188E090E00E94F53660E083E290E097
:1034C0000E94E33660E08CE090E00E94E33660E02A
:1034D0008DE090E00E94E33619821A821B821C82E2
:1034E0001D821E821F82188648E050E067E170E06E
:1034F000CE0101960E94D33640E050E0BA018FE140
:1035000090E00E94F53680E00E9494280E94C62830
:103510000E94281A2896E2E00C948C360E94301AF9
:103520000895682F8EE090E00E94E3360895A6E0AB
:10353000B0E0EDE9FAE10C946E360E94C32C8C01E8
:1035400080915402909155028017910779F0198269
:103550001A820E94C32CBC0149815A8180E090E00C
:103560000E94671110935502009354022696E4E0DE
:103570000C948A360E94CF2C60936202709363028F
:10358000809364029093650260935E0270935F0281
:10359000809360029093610208950E94CF2C609303
:1035A0006202709363028093640290936502609359
:1035B0005A0270935B0280935C0290935D020895BF
:1035C000089508950E94E01A089508950E94E51A4A
:1035D000089580EC9DE10E942D1F0E94E11A0E9437
:1035E000E21A089581E0089581E008950E94F21A98
:1035F0000895089508950E94F91A0E94FA1A0895EC
:103600000E94ED19811102C00E948E1A0E94F919C0
:10361000809366020E94091A90930103809300032D
:103620000E94F9230E94FE190E94D6148091FC0189
:103630000E94EE1408950E94BA2C0E94D6280E947F
:1036400072220E947D1E0E94001B0E94411180E098
:103650000E947A1F0E94E61A0895A6E0B0E0E3E314
:10366000FBE10C9466360E94F41A082F811111C0F8
:103670000E94971A00E00E94012A0E94DB22811515
:1036800009F45FC00E94CD1A0E9444220E941521B5
:103690005CC00E94931E86E5A82E82E0B82E6501CC
:1036A00010E0F601F1906F01812F0E94DC1D1F5F79
:1036B000143009F443C0F816A1F38091660281FD2D
:1036C0000E94E21D0E94F61A982EF12C8824839401
:1036D0008F2D0E94DC1D182FF50191915F01891734
:1036E00031F1C82EC926E12CDD24D3948D2D8C21F7
:1036F0008115B1F09114A1F0E982FA820E94C32CE5
:103700009C838B838D8291E08D2D8123811101C05B
:1037100090E049815A816B817C818D810E94671183
:10372000E394DD0CF5E0EF12E1CFF5011293F39491
:1037300084E0F812CDCF0E94BA1A9DCFF812BDCF07
:1037400097CF0E9444220111A1CF0E944E112696CC
:10375000ECE00C9482361F93CF93DF930E94D01C31
:10376000EC01811522E5920708F05DC0811540E566
:10377000940708F0DBC0803E910528F58D3C91054B
:1037800008F0ACC0883A910578F4853A910508F0C4
:10379000A2C08130910509F441C00497813A910596
:1037A000E8F1C0E0D0E03AC0885A91094B97C8F7D9
:1037B000C85AD0E0CC0FDD1FCE58DE4F0990D8811B
:1037C000C02DD4642BC0811550E49507F8F4C115C1
:1037D00080E2D80708F0C0C0C83ED105F8F0CE019D
:1037E0009A9581159F41E8F68D2F0E94711D182F23
:1037F000CE0199270E94D01C212F30E0322F2227A2
:10380000E901CC27DF71C82BD92B08C099270E946A
:10381000D01CCC27DF70C82BD92BD06ACE01DF910A
:10382000CF911F910895803842E59407C8F58036FE
:1038300052E5950708F05BC0C03482E5D807D0F4A4
:10384000C03292E5D90708F04BC08C2F869586953B
:1038500020E2829FC0011124C37021E030E0A90161
:1038600002C0440F551FCA95E2F7EA01C82BD92BB5
:10387000DD68D4CF8C2F86958695877050E2859F22
:10388000C0011124C37021E030E0A90102C0440F3F
:10389000551FCA95E2F7EA01C82BD92BDC68BECFC9
:1038A000803C52E5950758F48F71C03AD245A0F597
:1038B00090E0982F8827EC01C46FD06AAFCF805C6E
:1038C0009245809708F06DCFDC2FCC27CC27DF7195
:1038D000C06FD06AA3CFA497D064A0CFD0659ECF8D
:1038E000CF71D0E0DC2FCC27C16FD06A97CF8695FF
:1038F0008695877020E2829FC0011124C37021E069
:1039000030E0A90102C0440F551FCA95E2F7EA0151
:10391000C82BD92BDA6882CF0E94711DC82FD0E046
:10392000DC2FCC27CC27DF71D06278CF8F710E943B
:10393000711D53E0CC0FDD1F5A95E1F7CC27DF70E6
:10394000282F30E084FF04C050E1859F90011124AE
:10395000C22BD32BD06962CF8D2F8F710E94711D26
:10396000182FCE0199270E94D01C212F30E0322F32
:10397000222722273F71282B392BE901D5CF462F4B
:10398000672F743028F4453018F40E94AA24089553
:1039900080E090E008950E94BF1C0E94AB1B089538
:1039A0009C01803E910509F448C0D8F4813391050B
:1039B00009F47DC048F48932910509F46DC08A97F5
:1039C00009F47CC0C90108958933910551F1823809
:1039D000910539F1C597B1F78091000385FFF2CFCA
:1039E00029C0843E910509F447C048F4823E910500
:1039F00099F1833E9105A9F121EE30E0E3CF863EB7
:103A0000910509F444C0873E9105E1F680910003D9
:103A100083FD61C09091010391FF2BC024EE30E043
:103A2000D1CF809100038370811152C08091010336
:103A300083FFC8CF29E230E0C5CF8091000380FD2D
:103A400033C09091010390FFBDCF23EE30E084FF9F
:103A5000B9CF20E030E0B6CF8091000382FDF5CFF2
:103A6000B1CF8091000382FD30C09091010390FDA1
:103A70002FC084FFA7CFEDCF8091010381FFA2CF9C
:103A80008091000327EE30E084FDE3CF9BCF80914F
:103A9000000383FDF7CF96CF8091000385FD1EC004
:103AA0008091010383FF8ECF29E330E08BCF80919B
:103AB000000386FF87CF2AE230E084CF80910003A5
:103AC00086FF80CF21E330E07DCF22EE30E07ACF59
:103AD00020EE30E077CF26EE30E074CF25E330E003
:103AE00071CF9091000392FF10C041E0282F247104
:103AF000243009F040E031E0282F2871283009F007
:103B000030E0431711F02CE0822793FF10C041E012
:103B1000282F2471243109F040E031E0282F28714A
:103B2000283109F030E0431711F02CE08227309162
:103B3000010330FF10C051E0282F2171213009F01E
:103B400050E041E0282F2871283009F040E0541758
:103B500011F029E0822731FF10C041E0282F2171A8
:103B6000213109F040E031E0282F2871283109F097
:103B700030E0431711F029E0822794FD877E0895F5
:103B800080E00895CF939C01FB01805E9245C1E0E7
:103B9000809738F4C581C11104C0822F8F710E94B3
:103BA00006108C2FCF91089508950E94D41D08957A
:103BB00008950E94D81D0895E82FF0E0EA5FFC4FB9
:103BC00080810895089580EA8A95F1F7089500C0EC
:103BD00008950E94E31D0895F894E82FE295EF7090
:103BE000F0E041A18F7021E030E0B90102C0660F22
:103BF000771F8A95E2F7CB01962F9095942391A396
:103C000092A1892B82A378940895CF93DF9384EFB8
:103C10000E94EC1D85EF0E94EC1D86EF0E94EC1DBA
:103C200087EF0E94EC1DC8EAD1E089918F3F11F027
:103C30000E94EC1D81E0CD3AD807B9F7DF91CF9112
:103C40000895A0E0B0E0E7E2FEE10C946A36EC01F2
:103C5000D62E062F10E0C80183559E4F7C01FC0133
:103C600080818F3F09F444C0F894E82FE295EF700B
:103C7000F0E091A18F7021E030E001C0220F8A9521
:103C8000EAF7892F822B81A382A12095282322A3E2
:103C900078940E94E71DA8EAB1E091E0C12C8D91D3
:103CA0008F3F79F0E82FE295EF70E05EF0E0208141
:103CB00030E08F7002C0359527958A95E2F7892FFD
:103CC00020FD80E0C82A990FF1E0AD3ABF0739F72F
:103CD000F70180818F3F11F00E94EC1D61E0C1105F
:103CE00001C060E08D2D0E94E91DC00FD11FC88268
:103CF000CDB7DEB7E8E00C9486360E94051E84E05E
:103D0000E6E0F3E0DF01982F1D929A95E9F7E2E0F3
:103D1000F3E0DF011D928A95E9F784E00E94D31E4B
:103D20000E94D51D0895A4E0B0E0E9E9FEE10C94FD
:103D30006D36FE01319684E0DF011D928A95E9F728
:103D400010E0FE2E0F2F612F8F2D902F0E94211E2D
:103D50001F5F1430C1F744E050E06F2D702F82E0F8
:103D600093E00E94AF3621E0892B81F420E044E00B
:103D700066E073E082E093E00E94D41E182F0E9458
:103D8000D91D812F2496E5E00C94893689819A818A
:103D9000AB81BC818093020390930303A09304033F
:103DA000B0930503E4CF0895A0E0B0E0EAEDFEE1B2
:103DB0000C946A36D82EE92EF62ED72F042FC22F58
:103DC000211579F081E0809369020E94C32C9093C1
:103DD00068028093670280E0CDB7DEB7E8E00C941C
:103DE0008636C0906902C114B1F380916702909148
:103DF00068020E94DB2C059770F310E0A8016D2D7E
:103E00007E2D8F2D9D2F0E94AF36892B41F0A8016A
:103E10006D2D7E2D8F2D9D2F0E94BC36CC2D1092A6
:103E200069028C2FD9CF0E942D1B08950E945C2C13
:103E30000E9439300E94E91A0E9453300E941B1BD5
:103E40000E9460300E9465300E94131F0E947F30E4
:103E50000E94062F0E94FB1AF5CF9093DD018093FC
:103E6000DC010895AB0124E630E0BC0188E70E9444
:103E7000CB2D9C0181E0232B09F080E00895AB015C
:103E800024E630E0BC0188E70E941A2E9C0181E004
:103E9000232B09F080E008950F931F93AC019B0141
:103EA00004E610E060E488E70E94652E9C0181E052
:103EB000232B09F080E01F910F9108950E94952D0A
:103EC000089508950E94611F0895EAE0F3E080E0FC
:103ED00092E0DF019C011D9221503040E1F7F09308
:103EE0000F05E0930E058FEF9FEF9093960280935E
:103EF00095020895CF930E94611F0E94621F90E275
:103F000080FF90E880939102909390020E945E1F40
:103F10006BE070E088E595E10E943F1F811104C0CD
:103F2000C0E08C2FCF9108958091910265E070E000
:103F300081FD29C083E595E10E943F1F811581F332
:103F40006DE070E081E495E10E943F1FC82F81156C
:103F500039F30E94CF2CDC01CB01805A9541AF4F41
:103F6000BF4F80930A0590930B05A0930C05B09367
:103F70000D050E94651F81E0809394028093930257
:103F800010929202CECF8EE495E1D6CF209190028E
:103F900036E0839FC0011124269F800D911D1124BE
:103FA000811522E0920714F080E090E0865F9C4F3C
:103FB00090930F0580930E05089520910E05309182
:103FC0000F052450334040919002642F70E0C901E6
:103FD0000E94D735481B463010F4240F311D21159F
:103FE00082E0380710F020E030E0265F3C4F30934D
:103FF0000F0520930E050895CF93DF93982FC62FBA
:1040000081E09A3019F09D3031F480E00E947320F5
:10401000DF91CF91089520910E0530910F0586E034
:10402000F901AAE6B2E001900D928A95E1F7903E7F
:10403000B8F086E0F90111928A95E9F7C1111CC028
:10404000C0910E05D0910F0546E050E0BE018AE612
:1040500092E00E94AF36892BE9F40E94DD1FD8CF91
:10406000F6E09F9FB00111246D597A4E46E050E072
:10407000C9010E94A636E2CFE0910E05F0910F052E
:104080009F012A5F3F4F2E173F07D1F28081809515
:104090008193F9CFCA50D340CE0125E096958795FC
:1040A0002A95E1F721E030E0A90102C0440F551F35
:1040B0008A95E2F7CA014091950250919602842BAD
:1040C000952B259645E0D695C7954A95E1F702C010
:1040D000220F331FCA95E2F7822B932B90939602FF
:1040E00080939502BACFCF93382FE0910E05F091CF
:1040F0000F05EA50F34020919002622F70E0CF014B
:104100000E94D735281B822F311569F066E00E9486
:10411000CB35C82FC15010F4CF91089560E080E2F4
:104120000E94FC1FF7CF8E0F9F2F911D811522E05B
:10413000920710F080E090E0865F9C4F90930F050F
:1041400080930E05E9CFFF920F931F93CF93DF93D8
:10415000EC01F62EFC0101900020E9F78F010150DF
:104160001109C017D10728F0CDB7DEB7E5E00C94F0
:1041700089366F2D89910E94FC1FF3CF1F93CF9337
:10418000DF93EC01162FFE018491811104C0DF91B1
:10419000CF911F910895612F0E94FC1F2196F3CFAC
:1041A000EF92FF920F931F93CF93DF93A0910E0591
:1041B000B0910F059D012A503340620F731F61308B
:1041C00042E0740710F060E072E040919502509177
:1041D0009602FC01EE24E394F12C2617370748F0F1
:1041E0005093960240939502CDB7DEB7E6E00C946B
:1041F000883684919D919817A1F08D010150110985
:10420000E8018883C901C5E096958795CA95E1F7CD
:10421000E70102C0CC0FDD1F8A95E2F7CE014C2BDF
:10422000592B2F5F3F4F3196D8CFCF93C091940237
:10423000C11105C0C09193028C2FCF9108950E94A7
:10424000CF2CDC01CB01805A9541AF4FBF4F8093FB
:104250000A0590930B05A0930C05B0930D05809172
:1042600093028111E9CF62E070E08FE395E10E9453
:104270003F1F8115F9F281E080939302DDCFA4E026
:10428000B0E0E5E4F1E20C9460368C838091950215
:1042900090919602892BF1F0809194028115D1F0D2
:1042A00080919202811116C00E94152110E01B829C
:1042B00044244394512C00E247E0F42E20919502CF
:1042C000309196022115310529F0111551F0FC812C
:1042D000F11107C02496E2E10C947C364B814F5FCC
:1042E0004B835B81852F90E0520102C0AA0CBB1C5E
:1042F0005A95E2F7A50142235323452B79F32091E8
:10430000910220FD3BC09695879596958795282F1D
:104310009B819295990F90763FE1390F909305011B
:1043200080930801309306012093090167E070E053
:1043300083E091E00E94321F811561F2BB81A0E20F
:10434000BA9FC00111242091910220FD20C060E29B
:1043500070E0865F9C4F0E944C1F811509F4BACF14
:10436000A094B09480919502909196028A219B210D
:1043700090939602809395021F5FA0CF9B81990F27
:10438000990F990F37E0390F80E023E0C7CFE0E7BE
:10439000F2E0202F11922A95E9F745EB51E05A837C
:1043A000498361EB71E0E981FA81A191FA83E983A4
:1043B000FB012191BF01280F392F311DA901465F53
:1043C0005C4F1A01EA2FF0E0E059FD4F20E030E0A9
:1043D0006F2C621A842C022E01C0880C0A94EAF712
:1043E0006101912CD601ED906D01E820462D49190F
:1043F000477050E0BE2D042E01C0BB0F0A94EAF7AF
:104400007B2E5195419551094770552701C0E6947F
:104410004A95EAF7EB2A4081E42AE082939448E047
:104420009412E0CF2F5F3F4F31962830310581F64F
:10443000A9EBB1E0E981FA81AE17BF0709F0B3CF6C
:1044400060E270E080E792E086CFCF93C091940263
:1044500080919302C11106C091E0C82FC9278C2F0B
:10446000CF9108958115D9F362E070E08DE395E175
:104470000E943F1F811103C0C0919302F0CF1092A0
:104480009302EDCF81E008950F931F9380919402E2
:10449000811511F160E080E00E94C61F0E94C50EE8
:1044A00080E00E943F21809193028115A9F00E9433
:1044B000CF2C00910A0510910B0520910C0530912D
:1044C0000D05601B710B820B930B6F3F7F4F8F4F5E
:1044D0009F4710F40E9425221F910F9108950E947A
:1044E000F21A0895E8E9F2E088E0DF011D928A956A
:1044F000E9F70E9483230895FC01228130E02F5FB9
:104500003F4F23703327938181E09217130609F000
:1045100080E008950F931F93CF93DF93EC01162F44
:10452000042F0E947C22811113C08A81FE01E80FB2
:10453000F11D00FB17F914838F5F83708A838881D4
:104540008F5F888381E0DF91CF911F910F91089554
:1045500080E0F9CFCF93DF93FC01EA01A381828150
:104560008A17B9F0AE0FBF2FB11D14968C9187FB3F
:10457000992790F98F77DB018C93988383818F5FE4
:104580008370838381818F5F818381E0DF91CF910D
:10459000089580E0FBCF462F682F88E992E00E94C3
:1045A0008A220895AB01BC0188E992E00E94AA2208
:1045B000089581E00895A2E0B0E0E1EEF2E20C940B
:1045C0006E3680919702811551F01092970280917A
:1045D0009A0280939B0280919802809399020E9494
:1045E000C1230E946F22182F811589F010E005C0A9
:1045F00069818A810E94A70E102FBE016F5F7F4FD5
:10460000CE0102960E94D222082F8111F1CF812F74
:104610002296E4E00C948A368FE891E00197F1F756
:1046200000C00000089590E06115E9F087539E4FA7
:10463000FC0180818F3FB1F0E82FE295EF70F0E050
:1046400041A18F7021E030E0B90102C0660F771FF1
:104650008A95E2F7CB01962F9095942391A392A18E
:10466000892B82A3089585539E4FE2CF90E0611578
:10467000A9F087539E4FFC0120812F3F91F0E22F3C
:10468000E295EF70E05EF0E0808190E02F7002C074
:10469000959587952A95E2F78170089585539E4FE9
:1046A000EACF80E008950895CF93DF93C0E0809132
:1046B000A002C81760F00E940C23C0E08091A00205
:1046C000C81778F00E945323DF91CF91089560E0DE
:1046D0008C2F0E94132361E08C2F0E941323CF5F45
:1046E000E6CF60E08C2F0E943623D82F61E08C2F1C
:1046F0000E943623EC2FF0E0ED55FD4F880F8D2BF7
:104700008083CF5FDBCF82E08093A0020E9454239E
:1047100008951F93CF93DF93182F440F642BC82F56
:10472000D0E0DE01AD55BD4FEC918E2F8370681740
:1047300021F1EE0FEE0FE62BEC93EF70F0E0E75473
:10474000FE4FCF55DD4F90818881980F988394302C
:1047500024F060E0812F0E94CB2288818D3F24F4D9
:1047600061E0812F0E94CB228881082E000C990BDA
:1047700064E070E00E94EB358883DF91CF911F9158
:104780000895CF93DF93C0E08091A002C81718F07E
:10479000DF91CF91089561E08C2F0E943623D82FAE
:1047A00060E08C2F0E943623682F4D2F8C2F0E94A3
:1047B0008923CF5FE9CF0E94E619089580E00E9427
:1047C000DC1D817008950E94931E2FEF86E791E013
:1047D000215080409040E1F700C000000E94931EED
:1047E0000E94DE23811521F00E94DB230E94242DEC
:1047F00008950E94E323089584E0089550E0440F53
:10480000551F9AE0699F400D511D112498E2899F20
:10481000400D511D1124CA01889608950F931F93CE
:10482000CF93DF93982F962B9430B8F44530A8F4AB
:104830000E94FE238C010E94C536C82FD0E0DC2FD9
:10484000CC27C80101960E94C5369E01282BC901BC
:10485000DF91CF911F910F91089580E090E0F8CF04
:104860000F931F93CF93DF93122F032F982F962B25
:10487000943068F4453058F40E94FE23EC01602F18
:104880000E94E336612FCE0101960E94E336DF914C
:10489000CF911F910F9108951F93CF93DF93D0E095
:1048A000C0E011C0412F6C2F8D2F0E947C0F9C0106
:1048B000412F6C2F8D2F0E9430241F5F153091F7F0
:1048C000CF5FC43011F010E0EDCFDF5FD43041F79F
:1048D000DF91CF911F910895EF92FF920F931F9355
:1048E000CF93DF938C01EA017A01E60EF71ECE1515
:1048F000DF0529F4CDB7DEB7E6E00C94883680E01A
:10490000003A110520F4C80188960E94C5368993A3
:104910000F5F1F4FECCFEF92FF920F931F93CF9338
:10492000DF938C01EA017A01E60EF71ECE15DF0552
:1049300029F4CDB7DEB7E6E00C948836003A1105CD
:1049400028F46881C80188960E94E33621960F5F9B
:104950001F4FECCF982F962B943028F4453018F445
:104960000E940E24089580E090E0089580E108956B
:1049700088E393E00895EF92FF920F931F93CF93F4
:10498000DF938C01EA017A01E60EF71ECE15DF05F2
:1049900029F4CDB7DEB7E6E00C948836083383E01F
:1049A000180748F4C80188539F4F0E94C536899361
:1049B0000F5F1F4FEBCF80E0FACFEF92FF920F9384
:1049C0001F93CF93DF938C01EA017A01E60EF71E65
:1049D000CE15DF0529F4CDB7DEB7E6E00C948836B6
:1049E000083383E0180730F46881C80188539F4F6B
:1049F0000E94E33621960F5F1F4FEACFCF93DF93DC
:104A0000C8ECD0E060E0CE010E94E3362196C115EB
:104A100084E0D807B9F7DF91CF910895A8E0B0E01E
:104A2000E4E1F5E20C946836F82E20E1821708F0F4
:104A300067C08FEF93E00E94C536811161C008EC1A
:104A400010E0F11033C0FE0131965F0188E0119251
:104A50008A95E9F76801FFEFCF1ADF0AC8010E94C3
:104A6000C53689831A82811509F44AC08130C1F4A0
:104A7000780122E0E20EF11CC6010E94C5368A834D
:104A80008115F1F19FEF980F9330E8F482E0C80EA2
:104A9000D11CC7010E94C5368B83811589F11C8208
:104AA00060E0C5010E942D278601D4CF011584E066
:104AB000180731F1C8010E94C5360F5F1F4F8111E1
:104AC000F5CFFA94BECF8430A1F402E010E0C70124
:104AD000EFEFEE1AFE0A0E94C536F501E00FF11F56
:104AE0008083811569F08C3731F4FE01E00FF11FEE
:104AF00012826701D5CF0F5F1F4F0730110539F7BD
:104B00002896EAE00C948436CF93DF93EB0186314C
:104B10009C4719F50E94EF189D819115A1F08A7AA2
:104B200091E0811101C090E09093A502811549F0B8
:104B300085E30E94BB2B0E94821980E0DF91CF9118
:104B4000089589E2F6CF8091A502811521F085E3D1
:104B50000E94C32BF0CF89E2FBCF81E0EFCFCF9350
:104B6000DF93EC01FB018581811509F4CFC09E0123
:104B700030572332310508F0AFC00E94091A9093D4
:104B8000010380930003FE01E150F047E232F1059A
:104B900020F4E75EF84C0C9440368091000381606D
:104BA0008093000390C0809101038860809301038B
:104BB0008AC0809100038260F3CF809100038460FB
:104BC000EFCF809100038860EBCF8091010381607B
:104BD000EDCF809101038260E9CF80910003806175
:104BE000DFCF809100038062DBCF8091000380647F
:104BF000D7CF0E948214809100038068D1CF80912A
:104C000000038C60CDCF809101038360CFCF809172
:104C100000038E7FC5CF80910103877FC7CF80912E
:104C200000038D7FBDCF809100038B7FB9CF809132
:104C30000003877FB5CF809101038E7FB7CF80912E
:104C400001038D7FB3CF809100038F7EA9CF809128
:104C500000038F7DA5CF809100038F7BA1CF0E94A1
:104C60008214809100038F779BCF80910003837F14
:104C700097CF809101038C7F99CF80910003992772
:104C800082FF939590FB82F990FB83F989CF809105
:104C90000103982F909590FB80F990FB81F986CFC6
:104CA00090910003892F8F7B96FF806479CF0E94BB
:104CB000821490910003892F97FB87F9805870CF59
:104CC00081E00E94911A80910003909101030E945B
:104CD0000E1A0E94821480E0DF91CF91089580E047
:104CE000F0CF90910003892F8F7E94FF806158CF81
:104CF00090910003892F8E7F90FF816051CF90911A
:104D00000103892F877F93FF886050CF81E0E4CF34
:104D1000A0E0B0E0EEE8F6E20C946936E82FF0E0AF
:104D2000ED55F54EB490282F26952695269530E022
:104D3000F901ED5BF44E0491877010E0082E02C07B
:104D4000159507950A94E2F701701127F901ED5CBA
:104D5000F44EE490F12C082E02C0F594E7940A94E6
:104D6000E2F7E0FAEE24FF24E0F8F901ED5DF44EFD
:104D7000C491D0E002C0D595C7958A95E2F7C1707D
:104D8000DD27C62ED12C0115110549F5E114F104DA
:104D900031F086EE0E94A011C601009771F5B601B0
:104DA0008B2D0E940912C601009779F5E114F104D8
:104DB000A1F50115110531F081EE0E94DF11C60148
:104DC0000097C9F5CD2B31F08CE20E942312C1145B
:104DD000D104C9F5CDB7DEB7E9E00C94853681EE94
:104DE0000E94A011C601009789F2EFE9FFE0319718
:104DF000F1F700C000000197F6CFEFE9FFE031972F
:104E0000F1F700C000000197C8CFEFE9FFE031974C
:104E1000F1F700C000000197C7CF86EE0E94DF11B6
:104E2000C601009731F2EFE9FFE03197F1F700C0DA
:104E300000000197F6CFEFE9FFE03197F1F700C0EE
:104E400000000197BDCF8FE99FE00197F1F700C007
:104E5000000091E0C91AD108BACFEF92FF921F93D8
:104E6000CF93DF93EC01162F8881811509F45AC086
:104E7000813009F053C08981813071F47E0182E074
:104E8000E80EF11C8A810E942312E701812F90E035
:104E90000097E1F52196E8CF823041F47E01E2E00F
:104EA000EE0EF11C8A810E94A011EFCF833041F4F5
:104EB0007E01F2E0EF0EF11C8A810E94DF11E5CF46
:104EC000843011F02196E2CF2A81229680E090E092
:104ED0006AE0AE014F5F5F4F2053330B2A3031053C
:104EE00050F0009799F2EFE9FFE03197F1F700C039
:104EF00000000197F6CF689FF001699FF00D112423
:104F0000C9018E0F9F1F2981EA01E3CFEFE9FFE07E
:104F10003197F1F700C000000197BACF612F0E94CE
:104F20008826B8CFDF91CF911F91FF90EF90089521
:104F30000F931F93CF93DF93C42FD22FFC01858152
:104F40008115C9F04093A8020E94C32C9093A70238
:104F50008093A60280E28C0F883040F4C77081E015
:104F600001C0880FCA95EAF70E942C12DF91CF91F9
:104F70001F910F9108951091A802141333C08091CE
:104F8000A6029091A7020E94DB2C883C910550F567
:104F9000C0E2CD0F1D17C1F080E2810F883040F4D0
:104FA000177081E001C0880F1A95EAF70E9433124A
:104FB000C83050F491E08D2F877001C0990F8A9509
:104FC000EAF7892F0E942C12802F0E942312C830EA
:104FD00068F6D77081E001C0880FDA95EAF70E9481
:104FE0003312C4CF80E28C0F883008F0BFCFC77077
:104FF00081E001C0880FCA95EAF7F1CF0F93DB017A
:10500000FC01E851FC47E730F10598F5E55CF84C08
:105010000C94403606E221EE41EE6AE17CE7CD01D8
:105020000E94982780E00F91089507E225EE45EE53
:105030006BE17CE7F4CF06E221EE40EE68E17CE72D
:10504000EECF07E225EE44EE69E17CE7E8CF06E229
:1050500021EE42EE6CE17CE7E2CF07E225EE46EE80
:105060006DE17CE7DCCF08E221E045EE6EE17CE714
:10507000D6CF15968C9181111092A80281E0D3CFE2
:10508000CF93DF939C01FB0127378CE7380739F07A
:1050900028373C47F1F081E0DF91CF910895858179
:1050A000811591F00E9472280E9403150E947828B1
:1050B000D82F0E947528C82F0E9472284D2F6C2F60
:1050C0000E94341680E0E8CF0E9472280E940F15DB
:1050D000EDCF8581811519F00E947528E5CF0E94DA
:1050E0007528F4CF80910C01089580910B010895EB
:1050F00080910A01089584E290E00E94C5368532CD
:1051000089F485E290E00E94C536833059F486E246
:1051100090E00E94C53691E0873209F090E0892F37
:105120008170089580E0FCCFCF93C82F65E2811194
:1051300001C06FEF84E290E00E94E33663E0C111AA
:1051400001C06FEF85E290E00E94E33667E2C11193
:1051500001C06FEF86E290E00E94E336CF910895A0
:10516000089587E290E00E94C536682F70E080E0E5
:1051700090E008950895CF93C62F0E94BA286C2F0F
:1051800087E290E00E94E336CF91089580E00E948C
:10519000942860E070E0CB010E94BB280E944C2460
:1051A0000E94FE2481E00E94942808950E94B02865
:1051B0000E94B1280E94BA280E947B28811102C057
:1051C0000E94C628089508959C01FB0185818115E0
:1051D00051F0A90157574038510530F4822F0E94F1
:1051E0000E2580E0089581E008952FEFFC012083D3
:1051F00008950E94F528089580E00895CF92DF92E7
:10520000FF920F931F93CF93DF93EC01F62E0E9432
:10521000FC28811110C0E881E150E331E0F4F0E0B6
:10522000EE5BF84C0C94403619828CE08A836F2D2B
:10523000CE010E94FC2EDF91CF911F910F91FF9024
:10524000DF90CF90089589818330F9F038F4813070
:1052500061F0823099F08FEF8883E9CF8430D9F7FD
:105260001A821B821C821D82E2CF0E94CF2C0E94D8
:1052700046366A837B838C839D83D9CF0E94B12875
:105280001A821B821C826D83D2CF0A8110E06E01CC
:1052900083E0C80ED11C043011054CF6802F0E940B
:1052A000DC1DF60181936F010F5F1F4FF4CF8981E1
:1052B000823031F0853079F68A810E94E328B7CFB9
:1052C0006A817B818C819D810E9446360E94BB2829
:1052D000AECF4B816A8189810E940E24982789274D
:1052E00098279D838C83A3CF2C813D813227232750
:1052F00032274B816A8189810E94302498CF0E9495
:105300004C2495CF6F2DCE010E94F92890CF0E949A
:10531000B62489838CCF0E94B824982789279827A0
:105320009A83898384CF6B8170E089819A81AE01F1
:105330004C5F5F4F9827892798270E94BB2477CF1F
:105340006B8170E089819A81AE014C5F5F4F982735
:10535000892798270E94DD246ACF0E94FE2467CF08
:105360000E94FC23D6CF6B8170E089819A81AE01C7
:105370004C5F5F4F9827892798270E946C2457CF4E
:105380006B8170E089819A81AE014C5F5F4F9827F5
:10539000892798270E948B244ACF8091E60208959E
:1053A0009C019A9581159F4460F43327C9010497A5
:1053B000849768F02B52310981E02E30310528F4B2
:1053C0000895211581E0380788F380E0089581E091
:1053D00008950E94D02908950E94E929811581F03D
:1053E000E091AF02F0E0EE0FFF1FE055FD4F80812E
:1053F00091818F3F2FE7920719F001969183808367
:1054000008954F925F926F927F928F929F92AF9288
:10541000BF92CF92DF92EF92FF92CF93DF93CDB7FF
:10542000DEB729970FB6F894DEBF0FBECDBFC09090
:10543000B002D090B1020D2C000CEE08FF082091B4
:105440000D0130E0E0EBF2E081E090E032962817C9
:1054500039070CF0C8C06091E2027091E3028091BC
:10546000E4029091E5020E94EA2C4B015C018091DC
:105470000D0189879601A701F7FE04C020E030E006
:1054800040E050E0A0E6BAEE0E944D366D837E8388
:105490008F839887A98598ECA99F90011124032EEA
:1054A000000C440B550B280D391D4A1D5B1DA5E052
:1054B000B0E00E944D369B01AC016D817E818F81F1
:1054C00098850E94FF3529013A01213F31054105A8
:1054D000510528F030EF432E512C612C712C89ECB2
:1054E00088169104A104B10414F18091AF0290E0F8
:1054F000019669E170E00E94EB358093AF02880F5E
:10550000991FFC01E055FD4F118210828985883179
:1055100008F087E18F5F80930D010E94CF2C60938C
:10552000E2027093E3028093E4029093E50292E03A
:10553000C916D104E104F1041CF4412C512C3201B0
:105540006091AB027091AC028091AD029091AE027D
:105550000E94EA2C69837A838B839C8389819A8158
:10556000AB81BC8185369105A105B10584F00E940F
:10557000CF2C6093AB027093AC028093AD029093FA
:10558000AE028091E6028093AA024092A902909115
:10559000AA029D83A091A902A91BBB0B29813A8174
:1055A0004B815C810E94583624E630E040E050E0B8
:1055B0000E942136AD81A20FA093E60229960FB674
:1055C000F894DEBF0FBECDBFDF91CF91FF90EF907B
:1055D000DF90CF90BF90AF909F908F907F906F9013
:1055E0005F904F90089540815181052E000C660B0D
:1055F000770BC40ED51EE61EF71E019627CF90939B
:10560000EC028093EB020895E091EB02F091EC0242
:10561000309729F00190F081E02D0995089580E000
:1056200008950E94042B0895E091EB02F091EC02A2
:10563000309721F00280F381E02D09950895A3E0D1
:10564000B0E0E5E2FBE20C9470369C018091E90247
:105650009091EA0282179307A1F03093EA02209317
:10566000E902E091EB02F091EC02309751F083E017
:1056700089833B832A830084F185E02DCE01019646
:1056800009952396E2E00C948C36A3E0B0E0EBE4BD
:10569000FBE20C9470369C018091E7029091E80245
:1056A00082179307A1F03093E8022093E702E0917C
:1056B000EB02F091EC02309751F084E089833B8358
:1056C0002A830084F185E02DCE0101960995239669
:1056D000E2E00C948C3640910101509102019A0154
:1056E0002E5F3F4F485F5F4F80E0F90190812F5F51
:1056F0003F4F91118F5F42175307B9F708958115F6
:1057000071F02091010130910201F9013296285F78
:105710003F4F9191981729F0E217F307D1F780E0F6
:10572000089581E008959C01FC0132968FEF90E08E
:105730004191461751F08F3F19F4411101C0892F53
:105740009F5F9630A9F78F3F09F40895280F311D08
:1057500087FD3A95F901628308959C01FC01329618
:10576000285F3F4F8191861302C0DF011E92E2172E
:10577000F307C1F70895682F80910101909102010C
:105780000E94932B0895682F80910101909102014E
:105790000E94AD2B0895E0910101F0910201329633
:1057A00086E0DF011D928A95E9F7089508950E9429
:1057B000D62B08958F5F8093110160910E01709137
:1057C0000F0180911001909111010E94D72B089533
:1057D00083E08093110160910E0170910F0180911F
:1057E0001001909111010E94D72B08950E94DA2B8D
:1057F000089581E08093110160910E0170910F0175
:1058000080911001909111010E94D72B08950E9460
:10581000F92B089591E0811101C090E0909310015F
:1058200060910E0170910F01809110019091110112
:105830000E94D72B089580911001089580930F0145
:1058400060910E0170910F018091100190911101F2
:105850000E94D72B089580910F01089580930E0127
:1058600060910E0170910F018091100190911101D2
:105870000E94D72B089580910E01089508950895F0
:105880000E943F2C0895089508950E943E2C08958B
:10589000CF930E94432C0E94931E0E94442CC0E090
:1058A0008C2F0E94DC1D811105C0CF5FC430C1F771
:1058B000CF91089581E0FCCF85B7806885BF85B71B
:1058C000806885BF08951F921FB61F9211248F9381
:1058D0009F93AF93BF938091ED02811113C080918C
:1058E000100590911105A0911205B09113054196F4
:1058F000A11DB11D8093100590931105A093120571
:10590000B0931305BF91AF919F918F911F901FBED0
:105910001F90189580911805843031F10E94A910CC
:105920001092ED0288E190E020E40FB6F894A8957B
:10593000809360000FBE2093600083B7817F8460F6
:1059400083BF83B7816083BF7894889583B78E7F48
:1059500083BF0FB6F894A89580916000886180930A
:105960006000109260000FBE08950E9482140E9491
:10597000B010089582E084BD93E095BD9AEF97BD85
:1059800080936E0008952FB7F89480911005909140
:105990001105A0911205B09113052FBF08952FB7DF
:1059A000F894609110057091110580911205909105
:1059B00013052FBF08959C014FB7F89480911005EF
:1059C00090911105A0911205B09113054FBF821B54
:1059D000930B08950F931F938B019C014FB7F8947D
:1059E0006091100570911105809112059091130539
:1059F0004FBF601B710B820B930B1F910F9108958A
:105A000078941F921FB61F9211248F939F93AF9388
:105A1000BF938091100590911105A0911205B0914E
:105A200013050196A11DB11D8093100590931105DA
:105A3000A0931205B0931305BF91AF919F918F91E1
:105A40001F901FBE1F90189587E797E79093010856
:105A50008093000888E19AE00FB6F894A8958093A7
:105A600060000FBE90936000FFCF88E19AE00FB610
:105A7000F894A895809360000FBE90936000FFCFCC
:105A8000FF920F931F93CF93DF93182FEB01109288
:105A9000BC0084EA8093BC000E94C32C082FF92E1E
:105AA0008091BC0087FF28C08091B900887F883032
:105AB00029F08091B900887F8031A1F51093BB0057
:105AC00084E88093BC000E94C32C182F092F80917A
:105AD000BC0087FF1FC02091B900287F80E090E0C4
