:100000000C94230E0C94400E0C94400E0C94400E55
:100010000C94400E0C94400E0C94400E0C94400E28
:100020000C94400E0C94400E0C94A6310C94793232
:100030000C94BF2A0C94400E0C94400E0C94400E6D
:100040000C94400E0C94400E0C94400E0C94400EF8
:100050000C94400E0C945C2B0C94400E0C94400EAF
:100060000C94400E0C94400E0C94400E0C94400ED8
:100070000C94400E0C94400E0C94400E0C94400EC8
:100080000C94400E0C94400E0C94400E0C94400EB8
:100090000C94400E0C94400E0C94400E0C94400EA8
:1000A0000C94400E0C94400E0C94400E0000000086
:1000B0000000000000000000000000000000000040
:1000C0000000000000000000000000000000000030
:1000D0000000000000000000000000000000000020
:1000E0000000000000000000000000808040404050
:1000F00020202020201804020102040810202040A3
:1001000040808000000000000000000000000000AF
:1001100000000000000000000000000000000000DF
:1001200000000000000000000000000000000000CF
:1001300000000000000000000000000000000000BF
:1001400000000000000000000000000000000000AF
:100150000000000000000000000000000000003F60
:10016000C1010102020404040402020100000000B3
:10017000000000008000004080804000003030001F
:1001800000000001020404080810204080808080E4
:10019000404040402020202010101010080808087F
:1001A0000404040402020202010101010000000033
:1001B000000000000000000000000000000000003F
:1001C000000000000000000000000000000000002F
:1001D0000000000000000000000000000000E01827
:1001E0000601000000000000000000000080838382
:1001F000404040402021212010101010080808081D
:1002000004040404040830408080000001869860E3
:1002100000000000000000000000000000000000DE
:1002200000000000000000000000000000000000CE
:1002300000000000000000000000000000000000BE
:1002400000000000000000000000000080808080AE
:10025000404040402020202010101010080F0808B7
:1002600004040404020408101020204040414224E9
:100270001800000000000000000000000000000066
:10028000000000000000000000000101010000006B
:10029000000000000000000000000000000000005E
:1002A000000000000000000000000000000000004E
:1002B000000000000000000000000000000000003E
:1002C000000000000000000000000000000000002E
:1002D000000000000000000000000000000000001E
:1002E000000000000000000000000000000000000E
:1002F00000000000000000000000000000000000FE
:1003000000000000000000000000000000000000ED
:1003100000000000000000000000000000000000DD
:1003200000000000000000000000000000000000CD
:1003300000000000000000000000000000000000BD
:1003400000000000000000000000000000000000AD
:10035000000000000000000000000000000000009D
:1003600000000000000000000000808040404020AD
:1003700010080402010204081020408080000000E0
:10038000000000000000000000000000000000006D
:10039000000000000000000000000000000000005D
:1003A000000000000000000000000000000000004D
:1003B000000000000000000000000000000000003D
:1003C000000000000000000000000000000000002D
:1003D00000000000000000000000003FC101010219
:1003E00002040404040202010101000000000000F4
:1003F0000000008000008000006060000001020436
:100400000408081010202040808080804040404038
:1004100020202020101010100808080804040404EC
:1004200002020202010101010000000000000000C0
:1004300000000000000000000000000000000000BC
:1004400000000000000000000000000000000000AC
:1004500000000000000000000000C0300C0300009D
:100460000000000000000000008086864040404000
:100470002122222011111010080808080404040485
:100480000408304080800000018698600000000071
:10049000000000000000000000000000000000005C
:1004A000000000000000000000000000000000004C
:1004B000000000000000000000000000000000003C
:1004C000000000000000000080808080404040402C
:1004D0002020202010101010080F08080404040425
:1004E000020408101020204040414224180000005F
:1004F00000000000000000000000000000000000FC
:1005000000000000000001010100000000000000E8
:1005100000000000000000000000000000000000DB
:1005200000000000000000000000000000000000CB
:1005300000000000000000000000000000000000BB
:1005400000000000000000000000000000000000AB
:10055000000000000000000000000000000000009B
:10056000000000000000000000000000000000008B
:10057000000000000000000000000000000000007B
:10058000000000000000000000000000000000006B
:10059000000000000000000000000000000000005B
:1005A000000000000000000000000000000000004B
:1005B000000000000000000000000000000000003B
:1005C000000000000000000000000000000000002B
:1005D000000000000000000000000000000000001B
:1005E000000000000000808080804040201008044F
:1005F000020408102040808000000000000000007D
:1006000000000000000000000000000000000000EA
:1006100000000000000000000000000000000000DA
:1006200000000000000000000000000000000000CA
:1006300000000000000000000000000000000000BA
:1006400000000000000000000000000000000000AA
:10065000000000000000007E820202040408080876
:1006600008040402010100000000000000000080F6
:10067000000080000060600001010204040808100E
:10068000102020408080808040404040202020205A
:1006900010101010080808080404040402020202E2
:1006A0000101010100000000000000000000000046
:1006B000000000000000000000000000000000003A
:1006C000000000000000000000000000000000002A
:1006D000000000000000C0300C030000000000001B
:1006E00000000000008086864040404021222220F9
:1006F000111110100808080804040404040830400C
:10070000808000000186986000000000000000006A
:1007100000000000000000000000000000000000D9
:1007200000000000000000000000000000000000C9
:1007300000000000000000000000000000000000B9
:100740000000000080808080404040402020202029
:1007500010101010080F0808040404040204081004
:1007600010202040404142241800000000000000FA
:100770000000000000000000000000000000000079
:100780000000010101000000000000000000000066
:100790000000000000000000000000000000000059
:1007A0000000000000000000000000000000000049
:1007B0000000000000000000000000000000000039
:1007C0000000000000000000000000000000000029
:1007D0000000000000000000000000000000000019
:1007E0000000000000000000000000000000000009
:1007F00000000000000000000000000000000000F9
:1008000000000000000000000000000000000000E8
:1008100000000000000000000000000000000000D8
:1008200000000000000000000000000000000000C8
:1008300000000000000000000000000000000000B8
:1008400000000000000000000000000000000000A8
:100850000000000000000000000000000000000098
:1008600000008080808040402010080402040810AE
:100870002040808000000000000000000000000018
:100880000000000000000000000000000000000068
:100890000000000000000000000000000000000058
:1008A0000000000000000000000000000000000048
:1008B0000000000000000000000000000000000038
:1008C0000000000000000000000000000000000028
:1008D00000001C34C40404040808080808040402C6
:1008E0000101000000000000800000408080400006
:1008F0000030300001010202040404080810204006
:100900008080808040404040202020201010101027
:10091000080808080404040402020202010101019B
:1009200000000000000000000000000000000000C7
:1009300000000000000000000000000000000000B7
:1009400000000000000000000000000000000000A7
:100950000000E01806010000000000000000000098
:10096000008083834040404020212120101010103F
:1009700008080808040404040408304080800000CB
:1009800001869860000000000000000000000000E8
:100990000000000000000000000000000000000057
:1009A0000000000000000000000000000000000047
:1009B0000000000000000000000000000000000037
:1009C0008080808040404040202020201010101067
:1009D000080F080804040404020408101020204032
:1009E0004041422418000000000000000000000008
:1009F00000000000000000000000000000000101F5
:100A000001000000000000000000000000000000E5
:100A100000000000000000000000000000000000D6
:100A200000000000000000000000000000000000C6
:100A300000000000000000000000000000000000B6
:100A400000000000000000000000000000000000A6
:100A50000000000000000000000000000000000096
:100A60000000000000000000000000000000000086
:100A70000000000000000000000000000000000076
:100A80000000000000000000000000000000000066
:100A90000000000000000000000000000000000056
:100AA0000000000000000000000000000000000046
:100AB0000000000000000000000000000000000036
:100AC0000000000000000000000000000000000026
:100AD0000000000000000000000000808040404056
:100AE00020202020201804020102040810202040A9
:100AF00040808000000000000000000000000000B6
:100B000000000000000000000000000000000000E5
:100B100000000000000000000000000000000000D5
:100B200000000000000000000000000000000000C5
:100B300000000000000000000000000000000000B5
:100B400000000000000000000000000000060D3161
:100B5000C1010101020202040402020100000000BE
:100B60000000000080000040808040000030300025
:100B700000000001020404080810204080808080EA
:100B80004040404020202020101010100808080885
:100B90000404040402020202010101010000000039
:100BA0000000000000000000000000000000000045
:100BB0000000000000000000000000000000000035
:100BC0000000000000000000000000000000E0182D
:100BD0000601000000000000000000000080838388
:100BE0004040404020212120101010100808080823
:100BF00004040404040830408080000001869860EA
:100C000000000000000000000000000000000000E4
:100C100000000000000000000000000000000000D4
:100C200000000000000000000000000000000000C4
:100C300000000000000000000000000080808080B4
:100C4000404040402020202010101010080F0808BD
:100C500004040404020408101020204040414224EF
:100C6000180000000000000000000000000000006C
:100C70000000000000000000000001010100000071
:100C80000000000000000000000000000000000064
:100C90000000000000000000000000000000000054
:100CA0000000000000000000000000000000000044
:100CB0000000000000000000000000000000000034
:100CC0000000000000000000000000000000000024
:100CD0000000000000000000000000000000000014
:100CE0000000000000000000000000000000000004
:100CF00000000000000000000000000000000000F4
:100D000000000000000000000000000000000000E3
:100D100000000000000000000000000000000000D3
:100D200000000000000000000000000000000000C3
:100D300000000000000000000000000000000000B3
:100D400000000000000000000000000000000000A3
:100D50000000000000000000000080808040402073
:100D60002010080402040810102020404080800059
:100D70000000000000000000000000000000000073
:100D80000000000000000000000000000000000063
:100D90000000000000000000000000000000000053
:100DA0000000000000000000000000000000000043
:100DB0000000000000000000000000000000000033
:100DC00000000000000000000000003FC10101021F
:100DD000020484444442820101010000000000003A
:100DE00080000040808040000030300000000001A2
:100DF0000264180412C2CA2488F080804040404037
:100E000020202020101010100808080804040404F2
:100E100002020202010101010000000000000000C6
:100E200000000000000000000000000000000000C2
:100E300000000000000000000000000000000000B2
:100E400000000000000000000000E01806010000A3
:100E50000C03000218190005FE80838340404040C7
:100E60002021212010101010080808080404040490
:100E70000202020201010101000000000000000066
:100E80000000000000000000000000000000000062
:100E90000000000000000000000000000000000052
:100EA0000000000000000000000000000000000042
:100EB0000000000000000000808080804040404032
:100EC0002020202010101010080F0808040404042B
:100ED0000202020201010101000000000000000006
:100EE0000000000000000000000000000000000002
:100EF00000000000000000000000000000000000F2
:100F000000000000000000000000000000000000E1
:100F100000000000000000000000000000000000D1
:100F200000000000000000000000000000000000C1
:100F300000000000000000000000000000000000B1
:100F400000000000000000000000000000000000A1
:100F50000000000000000000000000000000000091
:100F60000000000000000000000000000000000081
:100F70000000000000000000000000000000000071
:100F80000000000000000000000000000000000061
:100F90000000000000000000000000000000000051
:100FA0000000000000000000000000000000000041
:100FB0000000000000000000000000000000000031
:100FC0000000000000000000000000000000000021
:100FD00000000000000080808040402020100804B5
:100FE0000204081010202040408080000000000013
:100FF00000000000000000000000000000000000F1
:1010000000000000000000000000000000000000E0
:1010100000000000000000000000000000000000D0
:1010200000000000000000000000000000000000C0
:1010300000000000000000000000000000000000B0
:10104000000000000000003FC1010102020404048E
:1010500004020201010100000000000080000040C5
:10106000808040000030300000000001026418045D
:1010700012C2CA2488F080804040404020202020B6
:1010800010101010080808080404040402020202E8
:10109000010101010000000000000000000000004C
:1010A0000000000000000000000000000000000040
:1010B0000000000000000000000000000000000030
:1010C000000000000000E018060100000000000021
:1010D0000000000000808383404040402021212008
:1010E0001010101008080808040404040202020288
:1010F00001010101000000000000000000000000EC
:1011000000000000000000000000000000000000DF
:1011100000000000000000000000000000000000CF
:1011200000000000000000000000000000000000BF
:10113000000000008080808040404040202020202F
:1011400010101010080F080804040404020408100A
:10115000102020404041422498C088888C9C1C1E4E
:101160000E0600000000000000000000000000006B
:10117000000000000000000000000000000000006F
:10118000000000000000000000000000000000005F
:10119000000000000000000000000000000000004F
:1011A000000000000000000000000000000000003F
:1011B000000000000000000000000000000000002F
:1011C000000000000000000000000000000000001F
:1011D000000000000000000000000000000000000F
:1011E00000000000000000000000000000000000FF
:1011F00000000000000000000000000000000000EF
:1012000000000000000000000000000000000000DE
:1012100000000000000000000000000000000000CE
:1012200000000000000000000000000000000000BE
:1012300000000000000000000000000000000000AE
:10124000000000000000000000000000000000009E
:101250000000808080404020201008040204081014
:1012600010202040408080000000000000000000AE
:10127000000000000000000000000000000000006E
:10128000000000000000000000000000000000005E
:10129000000000000000000000000000000000004E
:1012A000000000000000000000000000000000003E
:1012B000000000000000000000000000000000002E
:1012C0000000003FC1010102020484444442820143
:1012D000010100000000000080000040808040000C
:1012E0000030300000000001020404080810204013
:1012F000808080804040404020202020101010102E
:1013000008080808040404040202020201010101A1
:1013100000000000000000000000000000000000CD
:1013200000000000000000000000000000000000BD
:1013300000000000000000000000000000000000AD
:101340000000E018060100000C0300021819000557
:10135000FE80838340404040202121201010101047
:1013600008080808040404040408304080800000D1
:1013700001869860000000000000000000000000EE
:10138000000000000000000000000000000000005D
:10139000000000000000000000000000000000004D
:1013A000000000000000000000000000000000003D
:1013B000808080804040404020202020101010106D
:1013C000080F0808040404040202020201010101DA
:1013D000000000000000000000000000000000000D
:1013E000000000060F0F07030361F0F8FC60010125
:1013F000013C78F8F07000000000000000000000E0
:1014000000000000000000000000000000000000DC
:1014100000000000000000000000000000000000CC
:1014200000000000000000000000000000000000BC
:1014300000000000000000000000000000000000AC
:10144000000000000000000000000000000000009C
:10145000000000000000000000000000000000008C
:10146000000000000000000000000000000000007C
:10147000000000000000000000000000000000006C
:1014800000000000000000000000000020202020DC
:101490002000434150530057504D3A20002900147A
:1014A000001A000800150017001C0018000C00129C
:1014B0000013002A002B0004001600070009000A90
:1014C000000B000D000E000F002800000035223830
:1014D000001D001B00060019000500110010003659
:1014E000003700E500E000E300E2002C4122522C2E
:1014F00041E600E700E40000000000000000AE004C
:10150000AF00DA0281FFD9F1DB20A4A62EAF00A044
:10151000C0D30000A1C8D30000AED580A81F408D65
:1015200014200007087F0807003E5B4F5B3E003E2B
:101530006B4F6B3E001C3E7C3E1C00183C7E3C18F2
:10154000001C577D571C001C5E7F5E1C0000183C71
:10155000180000FFE7C3E7FF00001824180000FF91
:10156000E7DBE7FF0030483A060E002629792926F6
:1015700000407F05050700407F05253F005A3CE7F6
:101580003C5A007F3E1C1C0800081C1C3E7F0014B7
:10159000227F2214005F5F005F5F0006097F017FEA
:1015A00000006689956A0060606060600094A2FF38
:1015B000A2940008047E04080010207E2010000879
:1015C000082A1C0800081C2A0808001E1010101009
:1015D000000C1E0C1E0C0030383E383000060E3E4B
:1015E0000E060000000000000000005F0000000088
:1015F0000700070000147F147F1400242A7F2A129A
:101600000023130864620036495620500000080782
:10161000030000001C224100000041221C00002A9F
:101620001C7F1C2A0008083E08080000807030005B
:10163000000808080808000000606000002010088A
:101640000402003E5149453E0000427F40000072C6
:1016500049494946002141494D33001814127F1071
:10166000002745454539003C4A494931004121118F
:10167000090700364949493600464949291E0000F4
:101680000014000000004034000000000814224153
:10169000001414141414000041221408000201590B
:1016A0000906003E415D594E007C1211127C007FFC
:1016B00049494936003E41414122007F4141413E76
:1016C000007F49494941007F09090901003E414124
:1016D0005173007F0808087F0000417F410000200F
:1016E00040413F01007F08142241007F40404040BC
:1016F000007F021C027F007F0408107F003E4141F2
:10170000413E007F09090906003E4151215E007FEC
:10171000091929460026494949320003017F01037E
:10172000003F4040403F001F2040201F003F403806
:10173000403F00631408146300030478040300614D
:1017400059494D4300007F414141000204081020E7
:1017500000004141417F000402010204004040407A
:101760004040000003070800002054547840007FE8
:101770002844443800384444442800384444287FEE
:101780000038545454180000087E09020018A4A41C
:101790009C78007F080404780000447D400000200D
:1017A00040403D00007F102844000000417F400081
:1017B000007C04780478007C0804047800384444F1
:1017C000443800FC182424180018242418FC007C39
:1017D000080404080048545454240004043F4424DA
:1017E000003C4040207C001C2040201C003C40303D
:1017F000403C004428102844004C9090907C0044C9
:1018000064544C440000083641000000007700009A
:10181000000041360800000201020402003C2623B9
:10182000263C00000000000000404040F0F8F8FFB7
:1018300038FFF8F83FF8F8FF38FFF8F8F04040407C
:1018400000000000000080C0C0C0800000C0C08058
:1018500000000080C0C000C0C0000080C0C0000008
:10186000000000C0C0C0C0C000C0C0000000000038
:101870000000000000000000000000000000000068
:101880000000000000000000000000000000000058
:101890000000000000000000000000000000000048
:1018A0000000C0F0F8FC3E1E06010000007F414130
:1018B000417F007F4141417F000080C0E07E5B4F5F
:1018C0005BFEC00000C000DCD7DEDEDED7DC00C07F
:1018D0000000000000000000000000000000000008
:1018E000000000000000000000494949FFFFFFFF21
:1018F000E0DFBFBF00BFBFDFE0FFFFFFFF49494997
:1019000000000000001F3F6060E0BF1F007F7F07F6
:101910001E381E077F7F007F7F0E1F3B7160000017
:101920000000007F7F0C0C0C007E7E007F7E030396
:10193000007F7E03037E7E03037F7E000F3E703CAC
:10194000063C703E0F00327B49493F7E007F7E039C
:1019500003001E3F69696F260000000000000000C0
:101960000000030F1F3F3C7870600000007F414182
:10197000417F007F4141417F00307B7F78302020D4
:1019800030787F3B0003000F7F0F0F0F7F0F0003A6
:101990000000000000000000000000000000000047
:1019A000000000000000000000010101070F0F7F90
:1019B0000F7F0F0F7E0F0F7F0F7F0F0F07010101AA
:1019C0000000000000000000000001010000000015
:1019D0000000000000000000000000000000000007
:1019E00000000000000000000000000000000000F7
:1019F00000000000000000000000000000000000E7
:101A000000000000000000000000000000000000D6
:101A100000000000000000000000000000000000C6
:101A200000000000000000000000000000000000B6
:101A300000000000000000000000000000000000A6
:101A40000000000000000000000000000000000096
:101A50000000000000000000000000000000000086
:101A600000000000000000000000002A2B280000F9
:101A7000000000000000000000000000000029003D
:101A80000000002C1E3420212224342627252E3647
:101A90002D3738271E1F20212223242526333336B5
:101AA0002E37381F0405060708090A0B0C0D0E0F08
:101AB000101112131415161718191A1B1C1D2F318B
:101AC00030232D350405060708090A0B0C0D0E0FEF
:101AD000101112131415161718191A1B1C1D2F316B
:101AE00030354C0000000000000000000000000045
:101AF00000000000000000000000000000000000E6
:101B0000000000000000007E0F00D4FFFFFFC700B0
:101B10000000780E035200410049004400340034B4
:101B200000000018034D0061007800200057006F8E
:101B3000007A006E00690061006B00000004030978
:101B40000409025B00030100A0FA0904000001037C
:101B50000101000921110100012244000705810350
:101B6000080001090401000203000000092111011D
:101B7000000122220007058203200001070503035C
:101B800020000109040200010300000009211101E5
:101B90000001223200070584032000011201000227
:101BA0000000000886805353000101020001066016
:101BB000FF0961A1010962150026FF009520750843
:101BC00081020963150026FF00952075089102C067
:101BD00005010980A101850319012AB70015012615
:101BE000B700950175108100C0050C0901A10185A0
:101BF0000419012AA002150126A002950175108181
:101C000000C005010906A101050719E029E7150033
:101C10002501950875018102950175088101050767
:101C2000190029FF150026FF00950675088100059B
:101C300008190129051500250195057501910295E1
:101C40000175039101C011241FBECFEFDAE0DEBFA2
:101C5000CDBF11E0A0E0B1E0E6E7FBE602C00590F1
:101C60000D92A03DB107D9F725E0A0EDB1E001C08C
:101C70001D92A831B207E1F70E94DA1E0C94733569
:101C80000C9400000E9428288531E8F48091D3014B
:101C900090E0019665E070E00E9447348093D301A4
:101CA00024E030E0281B390B4CE752E0249FC001B0
:101CB000259F900D349F900D11246CE772E08455A0
:101CC0009F4F0E9494200E942828853150F00E9446
:101CD00028288E3130F46CE772E088E19DE00E94A4
:101CE00094200E9428288E3188F08091D20190E0C3
:101CF0000196817099278093D20101978C77927019
:101D00006CE772E08C56904F0E9494200895CF9318
:101D1000DF930E940622C82F811509F499C00E9402
:101D20002828811509F463C00E94D9206091D80148
:101D30007091D9018091DA019091DB010E94462BCC
:101D4000693C71058105910560F00E942B2B609321
:101D5000D8017093D9018093DA019093DB010E943E
:101D6000420E0E942B2B6093D4017093D501809377
:101D7000D6019093D70160E080E00E948A1F60E066
:101D800087E994E10E9482200E94282860E30E9453
:101D9000B71060E00E94672060E085EE92E00E944C
:101DA00067200E946C29D82F61E080E00E948A1F82
:101DB00082E994E1D1FD02C08CE894E160E00E94E8
:101DC000822062E080E00E948A1F8091F9010E94D7
:101DD000D910823009F446C0C8F581113DC00E9477
:101DE000D92060E08CE191E00E94672031C06091D1
:101DF000D4017091D5018091D6019091D7010E94B4
:101E0000462B61367A4E8105910518F00E94E92132
:101E1000B2CF6091D8017091D9018091DA0190918F
:101E2000DB010E94462B693C71058105910508F490
:101E3000A2CF0E942B2B6093D8017093D90180937D
:101E4000DA019093DB010E94420E95CF833081F03E
:101E50008C2FDF91CF9108950E94D92060E084E219
:101E600091E0C2CF0E94D92060E08CE291E0BCCF2B
:101E70000E94D92060E085E391E0B6CF811112C0C5
:101E8000643080F44C3070F4E42FF0E08CE0689F14
:101E9000E00DF11D1124EE0FFF1FE356FB4E85915F
:101EA0009491089581E090E0089581E008950E9462
:101EB000550F089581E0089581E008950E945C0F18
:101EC000089508950E94610F0895A6E0B0E0EBE642
:101ED000FFE00C94CB3449835A839E833091E60112
:101EE00089819A8131111AC03E81311599F02115ED
:101EF00089F00E947515182F682F89819A810E9498
:101F0000511569817A81812F0E94681C2696E3E031
:101F10000C94E7340E946315182FF3CF0E947515B7
:101F200069817A81F1CFFC01262F40815181628144
:101F30007381848195810E94650F0895CF93DF930B
:101F4000D82FC92F61E00E94930F6D2F7C2F0E9424
:101F5000570FDF91CF910895CF93DF93D82FC92FDB
:101F600060E00E94930F6D2F7C2F0E94620FDF9123
:101F7000CF91089591E001C0990F8A95EAF7892FD2
:101F80000E9493140895CF93C82F81E00C2E01C0B6
:101F9000880F0A94EAF70E94C0198C2F0E94BA0F8A
:101FA000CF91089581E008950E94D20F0895CF93B4
:101FB000C82F0E943F148C2F0E94D40F2FEF84E370
:101FC0009CE0215080409040E1F700C00000CF919C
:101FD000089581E00E94D70F0E94802B089580E031
:101FE0000E94D70F0E94912B08950F931F93CF93B8
:101FF000DF938C0161E00E94930FEC01F801858171
:10200000811519F0CE010E944728B801CE010E9427
:102010003F27811509F449C0B801CE010E945E0F27
:10202000811509F442C0B801CE010E9459268115DC
:10203000E1F1B801CE010E940A248115B1F1B80185
:10204000CE010E94DF23811581F1B801CE010E94EB
:102050009B26811551F1B801CE010E946B1D81159F
:1020600021F1F8018581811581F0CA35FCE7DF0790
:1020700039F178F4C130ECE7DE07F9F0C330FCE762
:10208000DF07C9F0C115DC4771F0C8010E945A0F83
:102090000DC0CB35ECE7DE07B1F0CC35DC47A9F756
:1020A0000E949219F2CF0E94E90F80E0DF91CF9158
:1020B0001F910F9108950E94A3190E94EF0FF5CF71
:1020C0000E949B19E2CF0E949F19DFCF0E949B2A9A
:1020D0000E9402110E94E92108950E9406110E94A7
:1020E000A02A08954F925F926F927F92AF92BF9213
:1020F000CF92DF92EF92FF920F93CF93DF935C0129
:1021000029013A01615071097B01EC01C60FD71F0B
:102110001882C12CD12CCE14DF0478F0C501DF91D8
:10212000CF910F91FF90EF90DF90CF90BF90AF9045
:102130007F906F905F904F900895C301B2012AE0A5
:1021400030E040E050E00E945B34605D603341F479
:10215000C114D10429F045284628472809F4602FE6
:102160006A9329013A018FEFC81AD80AD4CF0F9386
:10217000CF93DF93062F90910001981306C09091A2
:10218000E001CCEDD1E0961779F080930001009347
:10219000E001282F30E040E050E064E070E08CED9A
:1021A00091E00E947210EC01CE01DF91CF910F916E
:1021B0000895982F92959F7024E0911102C020E01D
:1021C000982F892F86958695811511F02E5F982F6F
:1021D000892F8695820F089581E008950895CF9301
:1021E000DF93D82F0E94EC10C82F811519F08D2F86
:1021F0000E94EE108C2FDF91CF91089508950E94D8
:10220000EF10089580E00E94FF1008950E945F295A
:102210000E94FF100895CF930E945F29C82F8091DC
:10222000E1018C1779F0C093E1010E942B2B6093A0
:10223000E2017093E3018093E4019093E5018C2F18
:102240000E94FF10CF910895ADE0B0E0EAE2F1E125
:102250000C94CC34488759876A877B878C879D8705
:1022600091110E94CE181F8286E0FE013896DE0191
:10227000119601900D928A95E1F78D8181110DC023
:1022800029813A814B815C816D817E818F810E94A1
:1022900018182D96E2E00C94E834CE0101960E94C5
:1022A0009E0F8111EDCFF5CFFC018481813021F4A7
:1022B000808191810E949E150895CF93C82F81152A
:1022C00099F08CEF8C0F813A88F48C2F0E94DA29D8
:1022D000811529F08C2F0E941E2A0E943F198C2FF5
:1022E0000E94162A0E943F19CF91089580E28C0F18
:1022F000883048F4C77081E001C0880FCA95EAF7BA
:102300000E94AF18EFCF8BE58C0F833038F42C2F61
:102310002452330BC9010E947A29E6CFC85ACB3127
:1023200018F7EC2FF0E0EE0FFF1FE45CFE4F80810A
:1023300091810E94A029D8CF811539F19CEF980F87
:10234000913A28F40E941E2A0E943F19089590E2B3
:10235000980F983050F4877091E001C0990F8A95DA
:10236000EAF7892F0E94B518EFCF9BE5980F9330BD
:1023700028F480E090E00E947A290895885A8B31F1
:1023800020F480E090E00E94A02908950F931F930D
:10239000CF93C82F8B010E945D110115110539F4EF
:1023A0008C2F0E949C11CF911F910F9108958FE95E
:1023B0009FE00197F1F700C0000001501109EDCF37
:1023C00060E570E0893311F060E070E00E94C611B2
:1023D0000895811521F00E94AF180E943F190895B9
:1023E000811521F00E94B5180E943F190895A0E0C0
:1023F000B0E0EDEFF1E10C94C6346C01D62FC72F9D
:10240000FC010581F680F2948FE0F8220E94A41866
:10241000E82E8115F9F0E02E0115E1F08C2F807F78
:10242000803461F080E28D0F8830A0F18C2F807EA7
:10243000803221F4D23070F1F11461F18091F00218
:1024400082FF28C082E00E9465190E94A41891E0D2
:10245000E82EE9268C2F82958F70883009F4E7C02A
:10246000B0F58430C8F41C2F1F70823008F440C0CF
:10247000C07FC03211F01295107FD11509F467C0EA
:10248000D13009F497C0011509F4A3C0F11409F47F
:102490007AC041C0E12CDECF843009F4ABC0E11436
:1024A00089F00E94A01880FD0DC0F60115820E94DF
:1024B0009A180E94C014C6010E940A140E949A1819
:1024C0000E94CC14CDB7DEB7E8E00C94E23489303A
:1024D00009F41AC18A5F8F70823008F7D23F09F081
:1024E00024C18C2F8F7101111DC10E94C014C9C05D
:1024F000C03110F01295107F011599F0111559F0A7
:1025000080E28D0F883010F0D11107C0812F0E941A
:10251000AF180E943F198D2F28C0812F0E94C0182C
:10252000F8CF8D2F0E949C11111509F4B8CF80E2CD
:102530008D0F883010F0D11104C0812F0E94B51882
:1025400003C0812F0E94C6180E943F19A8CF809116
:10255000F00282FD14C0011559F0111529F0812FE8
:102560000E94AF180E943F1980E00E945D1197CF32
:1025700080E00E949C11111509F491CFDECF011566
:1025800069F0F11004C0812F0E94E91188CFF1E0B9
:10259000FF1285CF812F0E94E61881CFF1107FCFE7
:1025A000812F0E94F011812F0E94F218812F0E942A
:1025B000D51875CF011529F026E0F21608F06FCF77
:1025C000E2CF85E0F81608F06ACF812F0E94F01163
:1025D00066CFF114D1F3D93349F49FEFE7EEF3E07E
:1025E0009150E040F040E1F700C000008D2F0E94C4
:1025F0009C1155CF8C2F869586958370811569F037
:10260000813009F04CCF8D2F9C2F9370011102C0A7
:1026100080E090E00E94A02942CF8D2F9C2F9370E4
:10262000011102C080E090E00E947A2938CF8C2FFF
:102630008370811134C0011124C04D2F42954695FD
:102640004770440F440F8D2F8F70042E01C0880FE8
:102650000A94EAF72D2F2071D4FF07C02FE030E055
:1026600001C0220F4A95EAF72095C695C695C3701A
:10267000822BC23071F0C33079F0C13039F00E9442
:102680009C140E945F290E94FF1009CF0E9496149B
:10269000F8CF0E94A214F5CF0E949314F2CF011537
:1026A00039F1C0FFEECF4D2F429546954770440F4C
:1026B000440F8D2F8F70042E01C0880F0A94EAF703
:1026C0002D2F2071D4FF07C02FE030E001C0220F72
:1026D0004A95EAF72095C695C695C370822BC230FD
:1026E00069F0C33071F0C13031F00E94EE14C9CFEF
:1026F000823038F2D8CF0E94E814C3CF0E94F4147D
:10270000C0CF0E94AE14BDCFCF70011539F08C2F11
:102710000E94C0148D2F0E94E911B3CF8D2F0E940B
:10272000F0118C2F0E94CC14ACCF68F4D03FC1F0D4
:10273000D13F89F0011509F441C0F114E1F18D2F69
:102740000E945D119ECFD33FC9F0D43F99F780918D
:10275000F00282FD1DC08C2F8F71011519F3C5CEBB
:10276000011549F025E0F21608F08BCF8C2F8F7100
:102770000E94DC1486CF86E0F816F6CF011529F00A
:102780008C2F8F710E94B7147CCF0E94B31479CF25
:10279000011531F063E08C2F8F710E94461971CFC3
:1027A00081E00E94651992E0F91608F46ACF82E090
:1027B0000E94651966CF8C2F8F7197CEF11479F036
:1027C000D93349F4EFEFF7EE23E0E150F040204039
:1027D000E1F700C000008D2F0E949C1152CF8C2F7A
:1027E0008F71A0CF0F931F93CF93DF93EC0168817C
:1027F00079818D810E94AB158C010E94FA140E9490
:102800009214B801CE010E94F711DF91CF911F9170
:102810000F910895CF93DF93EC018C81811599F08E
:10282000CE010E94F50F811111C00E94A4188115DC
:1028300051F08D81811539F08091F00282FF03C043
:1028400082E00E946519DF91CF910895CE010E9428
:10285000F213CE010E94AC0FF6CF80E090E00E9410
:102860007A2980E090E00E94A0290E94CE180E9460
:102870003F1908950E94262A0E942D1408950E944F
:10288000BD180E943A140895282F92959F70963093
:1028900099F060F4925F9F70923030F4203FB1F075
:1028A00038F481E0283E38F080E008959A5FF3CF55
:1028B00081E0243FC9F7089591E0813F09F090E05D
:1028C00081E0283E08F080E0892B089581E008959A
:1028D000FC018481811539F0808191810E949E15CF
:1028E0000E944414089580E00895A6E0B0E0EBE76C
:1028F000F4E10C94CC342696E2E00C94E834A7E0A2
:10290000B0E0E5E8F4E10C94CC342796E2E00C94D6
:10291000E83408950E94891408950E948A148093CF
:10292000FA01089508950E948D1408959091FA0176
:10293000892B0E948D1408959091FA0189230E9499
:102940008D1408959091FA0189270E948D1408959D
:102950000E94891408950E94A81408950E94AB143F
:102960008093F901089580E00E94AE14089591E0EB
:1029700001C0990F8A95EAF7892F0E94AE14089535
:1029800021E030E001C0220F8A95EAF78091F90139
:10299000822B0E94AE14089521E030E0A90102C00C
:1029A000440F551F8A95E2F7CA0180959091F9016D
:1029B00089230E94AE14089521E030E001C0220F67
:1029C0008A95EAF78091F90182270E94AE14089552
:1029D0009091F901892B0E94AE1408959091F9010C
:1029E00089230E94AE1408959091F90189270E94CD
:1029F000AE14089508959B01677091E001C0990F8E
:102A00006A95EAF763E0369527956A95E1F7B9018B
:102A1000660F771F260F371FFA01E20FF31F40E002
:102A200050E0682F70E08191DF019B01042E02C00D
:102A3000369527950A94E2F72170219528272923B6
:102A400028272E934F5F5F4F4330510561F708955C
:102A50009C01A82FA77083E0369527958A95E1F70A
:102A6000C901880F991F820F931FFB01E80FF91FFF
:102A700040E050E080E0219130E00A2E02C036951F
:102A800027950A94E2F721703327042E01C0220F04
:102A90000A94EAF7822B4F5F5F4F4330510559F795
:102AA0000895282F862F943068F42C3058F4622F24
:102AB00070E02CE0929F600D711D112447EE51E0F3
:102AC0000E94FB140895292F943068F48C3058F438
:102AD00090E067EE71E03CE0239F800D911D112492
:102AE0000E942815089580E00895A0E0B0E0EBE78B
:102AF000F5E10C94C7347C010091F9018091FA0151
:102B0000082BC3E0D0E010E0C8010C2E02C0959560
:102B100087950A94E2F780FD09C02197A8F7D12C88
:102B20008D2DCDB7DEB7E7E00C94E334DC2EB70192
:102B30008C2F0E94741C019781F3F2CFCF93DF9307
:102B4000D82FC92F0E9475156D2F7C2F0E94741CE1
:102B5000DF91CF9108951F93CF93DF93162FD72F37
:102B60009091E601911541F0862F972F0E949E15B6
:102B7000DF91CF911F910895811581F0862F972FB6
:102B80000E947515C82F682F812F9D2F0E94511507
:102B9000612F7D2F8C2F0E94741CEACF862F972FD8
:102BA0000E946315C82FF4CFE1E0F0E0DF0102C01E
:102BB000AA0FBB1F6A95E2F7BD01DF0102C0AA0F91
:102BC000BB1F4A95E2F76A2B01C0EE0F2A95EAF780
:102BD000962F9823961302C08E2B0895E0958E238E
:102BE0000895242F462F682F8091F9010E94D41553
:102BF0000E94AE1408950F931F93CF93E091FB01B1
:102C0000C7E08091FC018E1304C0CF911F910F91FA
:102C100008950E2F10E0CE9FF0011124E350FE4FD7
:102C200020813181428153816481758186810E9436
:102C30007F14F8013196E770E4CF2091350230918E
:102C400036024091370250913802609139027091FA
:102C50003A0280913B020E947F14089580913B02CA
:102C6000803178F480913A02811559F0E091FB01AE
:102C70002091FC01309136024091350257E02E132D
:102C800001C008956E2F70E05E9FF0011124DF01F6
:102C9000A350BE4F14968C911497811561F1119633
:102CA0008C911197831327C08C91841324C015969F
:102CB0008C91159781111FC012968D919C91A091B6
:102CC0003702B09138028A1B9B0B883C910598F41F
:102CD00080913B028F70806180933B02ED5FFD4FDE
:102CE00080818F708061808385E392E00E940A1466
:102CF0000E94FB150895FB013196E770C0CFE0916B
:102D0000FB019091FC0127E0E91302C080E00895E7
:102D1000AE2FB0E02E9FF0011124E350FE4F318121
:102D2000361306C03081381303C03581341304C014
:102D3000FD013196E770E8CF81E008958F929F9270
:102D4000AF92BF92DF92EF92FF920F931F93CF93B8
:102D5000DF93CDB7DEB72D970FB6F894DEBF0FBE69
:102D6000CDBF8C0186E0F801DE01189601900D922E
:102D70008A95E1F7F801F580848195E3892E92E048
:102D8000992E9091390291111BC0811509F4FFC051
:102D9000F11409F440C1C8010E946814811509F4B6
:102DA0003AC187E0F801D40101900D928A95E1F7CC
:102DB000C4010E9454110E942E160E941D16E7C0E5
:102DC000E080A280B380D0903A0220913702309107
:102DD0003802A501421B530BD11409F4DBC0483C57
:102DE000510508F0A6C0811509F4D1C090913602B2
:102DF000918080913B02803108F06BC0991228C00D
:102E0000909135029E1124C0F1105DC08F708061D9
:102E100080933B020E941D1685E392E00E940A14F3
:102E200080913B02F8018683F12C8F2D2D960FB6F1
:102E3000F894DEBF0FBECDBFDF91CF911F910F91F0
:102E4000FF90EF90DF90BF90AF909F908F9008958C
:102E5000F11039C040E0692D8E2D0E947F1640E0B0
:102E6000692D8E2D0E947F16F82E8111DDCF888569
:102E700099850E949E15292F22952F70903450F429
:102E80009F70223080F0911599F0F8019681903171
:102E900078F4CBCF2A5F2F70223078F0C8010E94DF
:102EA0000A14FD2CC2CF911519F0811509F4BDCF7C
:102EB000805E883008F4B9CFF1CF803F08F4B5CFF9
:102EC000815F8330F7CF80913B02816080933B022A
:102ED000ABCF991207C0909135029E1103C0F11437
:102EE00009F479C0C8010E946814811509F493C0DF
:102EF000F11409F490C080913B02803288F0209157
:102F00003502309136023A832983BC82AB8290919C
:102F100039029D831E828F83CE0101960E940A147E
:102F200087E0F801A5E3B2E001900D928A95E1F700
:102F300042CF90913B029031A0F4488559856A8533
:102F40007B858C859D850E94751485E392E00E94A7
:102F50000A1487E0F40111928A95E9F70E941D1680
:102F600063CF8115A1F02091360281812813BACF59
:102F7000809135028E11B6CFF110B4CF9683C8017F
:102F80000E940A1487E0F40111928A95E9F7FF2460
:102F9000F3944BCF483C510508F041C08115B9F37B
:102FA000F114C9F190913602818198132AC0809161
:102FB00035028E1126C080913B0280FD19C0803100
:102FC000B8F08683807F803F39F08681982F907F8C
:102FD000905F8F70892B8683C8010E940A1487E056
:102FE000F801A5E3B2E001900D928A95E1F7E5CEF4
:102FF00087E0F801A5E3B2E001900D928A95E1F730
:10300000C6CFC8010E94681481118ACF80913B020B
:10301000816080933B02C8010E940A14B8CF4885A2
:1030200059856A857B858C859D850E94751491CF15
:10303000AEE0B0E0EEE1F8E10C94CB3428873987BC
:103040004A875B876C877D878E87CE0108960E94B2
:103050009E166C858115A9F0611541F0288539858A
:103060004A855B857D858E850E947F1417E080915F
:10307000FB019091FC0189133AC02E96E3E00C9479
:10308000E73487E0FE013896DE01119601900D923B
:103090008A95E1F7611551F3A091FC018A2F90E028
:1030A0000196877099272091FB012817190689F04E
:1030B00097E09A9FD0011124A350BE4FFE01319694
:1030C00001900D929A95E1F78093FC010E94FB1507
:1030D000CDCF0E943F141092FC011092FB0187E0BB
:1030E000E5E3F2E0DF011D928A95E9F7BFCF189F73
:1030F000C001112483509E4F0E949E16811509F431
:10310000BCCFE091FB011E9FF0011124E350FE4F64
:1031100020813181428153816481758186810E9441
:103120007F148091FB0190E001968770992780932E
:10313000FB019DCF809144028695869586950895E2
:10314000809144028770089590914402977081E0C5
:10315000911101C080E008958091500208959091EE
:103160005002982B909350020895982F909580913B
:1031700050028923809350020895109250020895BE
:1031800090914F02982B90934F020895982F90950D
:1031900080914F02892380934F02089510924F022D
:1031A000089508950E94D118089590914502292FFD
:1031B0002823211531F080958923809345020E94B0
:1031C000D218089508950E94E21808959091460239
:1031D000292F2823281729F0982B909346020E9424
:1031E000E318089590914602292F2823211531F0E4
:1031F00080958923809346020E94E3180895809168
:103200004602811529F01092460280E00E94E318E0
:1032100008950F931F93CF93DF93009101011091B5
:103220000201C091500280914F02C82B809146024A
:10323000811531F0C82B0E94C62981110E94FF1808
:10324000F801C083C0910101D091020148E050E033
:103250006CE372E0CE010E940B35892B59F088E0B7
:10326000FE01ACE3B2E001900D928A95E1F7CE0148
:103270000E946F29DF91CF911F910F9108950E94B5
:103280000919089508950E9442190895962F2091D2
:10329000F00222FF11C0682F660F660F660F692BC0
:1032A000609344020E94C0148091440286958695E2
:1032B00086950E94431908950E94C01408951092A3
:1032C000440280E00E944319089590914402809541
:1032D000892380934402282F277021110DC089175C
:1032E00059F09091F00292FF07C0869586958695D9
:1032F0000E94CC140E945F1908959091F00292FBF5
:10330000222720F9281769F080FB92F99093F002A8
:103310008091EF029091F0020E94CB1982E00E940E
:10332000651908958091F002002482FF0394802D96
:103330000E947D19089581E00E947D19089580E022
:103340000E947D1908956FEF7FEF80E090E00E946A
:103350005D35089580E090E00E942935853E9E4FBE
:1033600019F40E94D626089580E0089582E090E046
:103370000E942135089583E090E00E942135089550
:10338000682F83E090E00E943F35089584E090E04C
:103390000E9429350895BC0184E090E00E945D35CB
:1033A0000895AB01BC018FE090E00E945135089573
:1033B000AB01BC0183E190E00E945135089560E0CB
:1033C00070E0CB010E94D819089560E070E0CB0155
:1033D0000E94D1190E94DF190895A8E0B0E0E3EF40
:1033E000F9E10C94CC3465EE7EEF80E090E00E9431
:1033F0005D3560E082E090E00E943F3581E080939F
:10340000FA010E94C01960E074E184E090E00E943B
:103410005D3560E086E090E00E943F3560E087E047
:1034200090E00E943F3540E050E0BA0188E090E033
:103430000E94513560E083E290E00E943F3560E0F9
:103440008CE090E00E943F3560E08DE090E00E94CB
:103450003F3519821A821B821C821D821E821F82A6
:10346000188648E050E067E170E0CE0101960E94C6
:103470002F3540E050E0BA018FE190E00E945135D5
:1034800080E00E94EF260E9421270E94E5192896DD
:10349000E2E00C94E8340E94ED190895682F8EE064
:1034A00090E00E943F350895A6E0B0E0EAE5FAE139
:1034B0000C94CA340E941F2B8C0180915102909170
:1034C00052028017910779F019821A820E941F2BED
:1034D000BC0149815A8180E090E00E942411109340
:1034E0005202009351022696E4E00C94E6340E94C6
:1034F0002B2B60935F027093600280936102909324
:10350000620260935B0270935C0280935D02909311
:103510005E020895089508950E948A1A08950895F4
:103520000E948F1A089589E69DE10E94F11E0E9473
:103530008B1A0E948C1A089581E0089581E0089505
:103540000E949C1A0895089508950E94A31A0E944B
:10355000A41A08950E94AA19811102C00E944B1A50
:103560000E94B619809363020E94C6199093F002DC
:103570008093EF020E9451220E94BB190E94931473
:103580008091F9010E94AB1408950E94162B0E94AD
:1035900031270E94421E0E94AA1A0E94FE1080E05B
:1035A0000E943E1F0E94901A0895A6E0B0E0EBED45
:1035B000FAE10C94BF340E949E1A182F811110C09A
:1035C0000E94541A10E00E945C280E9408221111E7
:1035D0000E94D9200E940B112696EFE00C94DB3458
:1035E0000E94581E23E5822E22E0922E540100E014
:1035F000F501619071905F01802F0E94851D6C0123
:103600000F5F043009F44BC06816790689F3809186
:10361000630281FD0E948E1D0E94A01A682E00E0A8
:1036200055245394802F0E94851D7C01F401A190A4
:10363000B1904F018A159B0561F1A826BF24712C1A
:10364000CC24C394D12CC5018C219D21892BC1F0A0
:103650006114B1F079820A830E941F2B9C838B83B3
:103660005D8221E0C7018C219D21892B09F420E096
:1036700049815A816B817C818D81922F0E94241116
:103680007394CC0CDD1CFCE07F12DDCFF401F292D0
:10369000E2920F5F043031F60E94771A94CF6816D9
:1036A000790609F0B4CF8CCF1F93CF93DF930E949C
:1036B000791CEC01811522E5920708F05DC08115A7
:1036C00040E5940708F0DBC0803E910528F58D3C6D
:1036D000910508F0ACC0883A910578F4853A9105D7
:1036E00008F0A2C08130910509F441C00497813AE5
:1036F0009105E8F1C0E0D0E03AC0885A91094B97B3
:10370000C8F7C85AD0E0CC0FDD1FCE58DE4F099065
:10371000D881C02DD4642BC0811550E49507F8F4EE
:10372000C11580E2D80708F0C0C0C83ED105F8F046
:10373000CE019A9581159F41E8F68D2F0E941A1DA2
:10374000182FCE0199270E94791C212F30E0322FAB
:103750002227E901CC27DF71C82BD92B08C0992774
:103760000E94791CCC27DF70C82BD92BD06ACE01E0
:10377000DF91CF911F910895803842E59407C8F5F5
:10378000803652E5950708F05BC0C03482E5D80763
:10379000D0F4C03292E5D90708F04BC08C2F869543
:1037A000869520E2829FC0011124C37021E030E0A1
:1037B000A90102C0440F551FCA95E2F7EA01C82BC0
:1037C000D92BDD68D4CF8C2F86958695877050E2F3
:1037D000859FC0011124C37021E030E0A90102C01F
:1037E000440F551FCA95E2F7EA01C82BD92BDC68B4
:1037F000BECF803C52E5950758F48F71C03AD24550
:10380000A0F590E0982F8827EC01C46FD06AAFCF65
:10381000805C9245809708F06DCFDC2FCC27CC27B9
:10382000DF71C06FD06AA3CFA497D064A0CFD0655A
:103830009ECFCF71D0E0DC2FCC27C16FD06A97CF5D
:1038400086958695877020E2829FC0011124C370FF
:1038500021E030E0A90102C0440F551FCA95E2F7EC
:10386000EA01C82BD92BDA6882CF0E941A1DC82F13
:10387000D0E0DC2FCC27CC27DF71D06278CF8F71DE
:103880000E941A1D53E0CC0FDD1F5A95E1F7CC279B
:10389000DF70282F30E084FF04C050E1859F900145
:1038A0001124C22BD32BD06962CF8D2F8F710E9430
:1038B0001A1D182FCE0199270E94791C212F30E064
:1038C000322F222722273F71282B392BE901D5CF10
:1038D000462F672F743028F44C3018F40E940523CB
:1038E000089580E090E008950E94681C0E94541B97
:1038F00008959C01803E910509F448C0D8F48133B5
:10390000910509F47DC048F48932910509F46DC030
:103910008A9709F47CC0C90108958933910551F152
:103920008238910539F1C597B1F78091EF0285FF93
:10393000F2CF29C0843E910509F447C048F4823E85
:10394000910599F1833E9105A9F121EE30E0E3CF95
:10395000863E910509F444C0873E9105E1F68091C9
:10396000EF0283FD61C09091F00291FF2BC024EE25
:1039700030E0D1CF8091EF028370811152C08091ED
:10398000F00283FFC8CF29E230E0C5CF8091EF027B
:1039900080FD33C09091F00290FFBDCF23EE30E068
:1039A00084FFB9CF20E030E0B6CF8091EF0282FDF6
:1039B000F5CFB1CF8091EF0282FD30C09091F0023F
:1039C00090FD2FC084FFA7CFEDCF8091F00281FF43
:1039D000A2CF8091EF0227EE30E084FDE3CF9BCFB2
:1039E0008091EF0283FDF7CF96CF8091EF0285FDA6
:1039F0001EC08091F00283FF8ECF29E330E08BCF91
:103A00008091EF0286FF87CF2AE230E084CF809159
:103A1000EF0286FF80CF21E330E07DCF22EE30E061
:103A20007ACF20EE30E077CF26EE30E074CF25E37A
:103A300030E071CF9091EF0292FF10C041E0282F4B
:103A40002471243009F040E031E0282F287128301B
:103A500009F030E0431711F02CE0822793FF10C0EB
:103A600041E0282F2471243109F040E031E0282F73
:103A70002871283109F030E0431711F02CE082273B
:103A80003091F00230FF10C051E0282F2171213019
:103A900009F050E041E0282F2871283009F040E07B
:103AA000541711F029E0822731FF10C041E0282F80
:103AB0002171213109F040E031E0282F28712831AF
:103AC00009F030E0431711F029E0822794FD877E4A
:103AD000089580E00895CF939C01FB01805E92459C
:103AE000C1E0809738F4C581C11104C0822F8F7165
:103AF0000E94C30F8C2FCF91089508950E947D1DC1
:103B0000089508950E94811D0895E82FF0E0EE0FBA
:103B1000FF1FE750FD4F808191810895089580EA4D
:103B20008A95F1F7089500C008950E948F1D0895A9
:103B3000F894E82FE295EF70F0E041A18F7021E05A
:103B400030E0B90102C0660F771F8A95E2F7CB011A
:103B5000962F9095942391A392A1892B82A3789478
:103B60000895CF93DF9384EF0E94981D85EF0E9404
:103B7000981D86EF0E94981D87EF0E94981DC8EA45
:103B8000D1E089918F3F11F00E94981D81E0C43BE4
:103B9000D807B9F7DF91CF9108958F929F92BF9286
:103BA000CF92DF92EF92FF920F931F93CF93DF9309
:103BB0008C01B62EE62EF12CC7018C549E4F6C0161
:103BC000FC0180818F3F09F451C0F894E82FE29501
:103BD000EF70F0E091A18F7021E030E001C0220F82
:103BE0008A95EAF7892F822B81A382A12095282329
:103BF00022A378940E94931DE8EAF1E021E030E0EE
:103C0000812C912C41914F3F81F0A42FA295AF7050
:103C1000A05EB0E08C9190E04F7002C095958795C2
:103C20004A95E2F7E90180FF04C080E0C82F90E0E8
:103C3000D92F8C2A9D2A220F331F81E0E43BF807FD
:103C400009F7F60180818F3F11F00E94981D61E015
:103C50008114910409F460E08B2D0E94951DEE0CF7
:103C6000FF1C0E0D1F1DF80191828082DF91CF9104
:103C70001F910F91FF90EF90DF90CF90BF909F909A
:103C80008F9008950E94B11D88E0E9EFF2E0DF0116
:103C9000982F1D929A95E9F7E1EFF2E0DF011D926E
:103CA0008A95E9F784E00E94951E0E947E1D089582
:103CB000A8E0B0E0EEE5FEE10C94C934FE013196D7
:103CC00088E0DF011D928A95E9F710E0FE2E0F2FA4
:103CD000612F8F2D902F0E94CD1D1F5F1430C1F7D3
:103CE00048E050E06F2D702F81EF92E00E940B357D
:103CF00021E0892B81F420E044E069EF72E081EF5C
:103D000092E00E94961E182F0E94821D812F2896F5
:103D1000E5E00C94E53488E0EF2DF02FA1EFB2E060
:103D200001900D928A95E1F7E7CF0895A0E0B0E009
:103D3000ECE9FEE10C94C634D82EE92EF62ED72FEE
:103D4000042FC22F211579F081E0809366020E9432
:103D50001F2B909365028093640280E0CDB7DEB79D
:103D6000E8E00C94E234C0906602C114B1F3809193
:103D70006402909165020E94372B059770F310E062
:103D8000000F111FA8016D2D7E2D8F2D9D2F0E94DC
:103D90000B35892B41F0A8016D2D7E2D8F2D9D2F88
:103DA0000E941835CC2D109266028C2FD7CF0E941E
:103DB000D51A08950E94B82A0E94952E0E94931A3F
:103DC0000E94AF2E0E94C51A0E94BC2E0E94C12ED6
:103DD0000E94D71E0E94DB2E0E94622D0E94A51A0F
:103DE000F5CF9093D1018093D0010895AB0124E6E3
:103DF00030E0BC0188E70E94272C9C0181E0232B46
:103E000009F080E00895AB0124E630E0BC0188E7CA
:103E10000E94762C9C0181E0232B09F080E008951C
:103E20000F931F93AC019B0104E610E060E488E768
:103E30000E94C12C9C0181E0232B09F080E01F919E
:103E40000F9108950E94F12B089508950E94251F57
:103E50000895E1E0F3E080E092E0DF019C011D9233
:103E600021503040E1F7F0930605E09305058FEF10
:103E70009FEF90939302809392020895CF930E94B4
:103E8000251F0E94261F90E280FF90E880938E02FB
:103E900090938D020E94221F6BE070E088E195E113
:103EA0000E94031F811104C0C0E08C2FCF910895A0
:103EB00080918E0265E070E081FD29C083E195E18B
:103EC0000E94031F811581F36DE070E081E095E1B0
:103ED0000E94031FC82F811539F30E942B2BDC0190
:103EE000CB01805A9541AF4FBF4F8093010590930E
:103EF0000205A0930305B09304050E94291F81E0E9
:103F0000809391028093900210928F02CECF8EE028
:103F100095E1D6CF20918D0236E0839FC001112418
:103F2000269F800D911D1124811522E0920714F027
:103F300080E090E08F5F9C4F90930605809305058D
:103F4000089520910505309106052B5F3240409180
:103F50008D02642F70E0C9010E943334481B463043
:103F600010F4240F311D211582E0380710F020E0F5
:103F700030E02F5F3C4F30930605209305050895F0
:103F8000CF93DF93982FC62F81E09A3019F09D30A0
:103F900031F480E00E943720DF91CF910895209185
:103FA00005053091060586E0F901A7E6B2E001902B
:103FB0000D928A95E1F7903EB8F086E0F9011192F2
:103FC0008A95E9F7C1111CC0C0910505D09106057D
:103FD00046E050E0BE0187E692E00E940B35892B57
:103FE000E9F40E94A11FD8CFF6E09F9FB0011124F1
:103FF0006D5D7A4E46E050E0C9010E940235E2CF85
:10400000E0910505F09106059F012A5F3F4F2E17AD
:104010003F07D1F2808180958193F9CFC150D34081
:10402000CE0125E0969587952A95E1F721E030E0CD
:10403000A90102C0440F551F8A95E2F7CA014091B9
:10404000920250919302842B952B259645E0D695AC
:10405000C7954A95E1F702C0220F331FCA95E2F7D0
:10406000822B932B9093930280939202BACFCF939B
:10407000382FE0910505F0910605E150F3402091BD
:104080008D02622F70E0CF010E943334281B822FF3
:10409000311569F066E00E942734C82FC15010F432
:1040A000CF91089560E080E20E94C01FF7CF8E0F8D
:1040B0009F2F911D811522E0920710F080E090E083
:1040C0008F5F9C4F9093060580930505E9CFFF9283
:1040D0000F931F93CF93DF93EC01F62EFC01019019
:1040E0000020E9F78F0101501109C017D10728F00E
:1040F000CDB7DEB7E5E00C94E5346F2D89910E94D1
:10410000C01FF3CF1F93CF93DF93EC01162FFE0157
:104110008491811104C0DF91CF911F910895612F87
:104120000E94C01F2196F3CFEF92FF920F931F932F
:10413000CF93DF93A0910505B09106059D01215015
:104140003340620F731F613042E0740710F060E08B
:1041500072E04091920250919302FC01EE24E394AC
:10416000F12C2617370748F05093930240939202A0
:10417000CDB7DEB7E6E00C94E43484919D919817B6
:10418000A1F08D0101501109E8018883C901C5E042
:1041900096958795CA95E1F7E70102C0CC0FDD1F20
:1041A0008A95E2F7CE014C2B592B2F5F3F4F31966A
:1041B000D8CFCF93C0919102C11105C0C091900298
:1041C0008C2FCF9108950E942B2BDC01CB01805ABC
:1041D0009541AF4FBF4F8093010590930205A09387
:1041E0000305B0930405809190028111E9CF62E04C
:1041F00070E08FEF94E10E94031F8115F9F281E0D6
:1042000080939002DDCFA4E0B0E0E9E0F1E20C940D
:10421000BC348C838091920290919302892BF1F0AF
:10422000809191028115D1F080918F02811116C089
:104230000E94D92010E01B8244244394512C00E2B8
:1042400047E0F42E2091920230919302211531051E
:1042500029F0111551F0FC81F11107C02496E2E11B
:104260000C94D8344B814F5F4B835B81852F90E05A
:10427000520102C0AA0CBB1C5A95E2F7A5014223C9
:104280005323452B79F320918E0220FD3BC0969558
:10429000879596958795282F9B819295990F907673
:1042A0003FE1390F90930501809308013093060197
:1042B0002093090167E070E083E091E00E94F61E20
:1042C000811561F2BB81A0E2BA9FC0011124209147
:1042D0008E0220FD20C060E270E08F5F9C4F0E9444
:1042E000101F811509F4BACFA094B0948091920266
:1042F000909193028A219B21909393028093920242
:104300001F5FA0CF9B81990F990F990F37E0390F4D
:1043100080E023E0C7CFEDE6F2E0202F11922A954E
:10432000E9F74CEB51E05A83498368EB71E0E9818E
:10433000FA81A191FA83E983FB012191BF01280F42
:10434000392F311DA9014F5F5C4F1A01EA2FF0E0B0
:10435000E359FD4F20E030E06F2C621A842C022ECE
:1043600001C0880C0A94EAF76101912CD601ED9006
:104370006D01E820462D4919477050E0BE2D042EEE
:1043800001C0BB0F0A94EAF77B2E51954195510964
:104390004770552701C0E6944A95EAF7EB2A408119
:1043A000E42AE082939448E09412E0CF2F5F3F4FDD
:1043B00031962830310581F6A0ECB1E0E981FA812F
:1043C000AE17BF0709F0B3CF60E270E08DE692E070
:1043D00086CFCF93C091910280919002C11106C007
:1043E00091E0C82FC9278C2FCF9108958115D9F35B
:1043F00062E070E08DEF94E10E94031F811103C021
:10440000C0919002F0CF10929002EDCF81E008951C
:104410000F931F9380919102811511F160E080E06C
:104420000E948A1F0E94870E80E00E9403218091D3
:1044300090028115A9F00E942B2B0091010510918B
:1044400002052091030530910405601B710B820B5E
:10445000930B6F3F7F4F8F4F9F4710F40E94E921CE
:104460001F910F9108950E94A319089580E00E9462
:10447000851D817008950E94581E2FEF86E791E0F8
:10448000215080409040E1F700C000000E94581E7B
:104490000E943622811521F00E9433220E94802B37
:1044A00008950E943B22089584E0089550E0440F4F
:1044B000551F98E1699F400D511D112490E6899F79
:1044C000400D511D1124CA01889608950F931F9322
:1044D000CF93DF93982F962B9430B8F44C30A8F4F8
:1044E0000E9456228C010E942135C82FD0E0DC2F7B
:1044F000CC27C80101960E9421359E01282BC901B5
:10450000DF91CF911F910F91089580E090E0F8CF57
:104510000F931F93CF93DF93122F032F982F962B78
:10452000943068F44C3058F40E945622EC01602F0D
:104530000E943F35612FCE0101960E943F35DF91E9
:10454000CF911F910F9108951F93CF93DF93D0E0E8
:10455000C0E011C0412F6C2F8D2F0E943E0F9C0197
:10456000412F6C2F8D2F0E9488221F5F1C3091F7E6
:10457000CF5FC43011F010E0EDCFDF5FD43041F7F2
:10458000DF91CF911F910895EF92FF920F931F93A8
:10459000CF93DF938C01EA017A01E60EF71ECE1568
:1045A000DF0529F4CDB7DEB7E6E00C94E43400383B
:1045B00081E0180740F4C80188960E94213589934C
:1045C0000F5F1F4FECCF80E0FACFEF92FF920F9377
:1045D0001F93CF93DF938C01EA017A01E60EF71E59
:1045E000CE15DF0529F4CDB7DEB7E6E00C94E43450
:1045F000003881E0180728F46881C80188960E9475
:104600003F3521960F5F1F4FEBCF982F962B94309D
:1046100028F44C3018F40E946622089580E090E05F
:10462000089580E1089588E592E00895EF92FF9261
:104630000F931F93CF93DF938C01EA017A01E60E6B
:10464000F71ECE15DF0529F4CDB7DEB7E6E00C94F2
:10465000E434083582E0180748F4C80188559E4FB5
:104660000E94213589930F5F1F4FEBCF80E0FACF77
:10467000EF92FF920F931F93CF93DF938C01EA0188
:104680007A01E60EF71ECE15DF0529F4CDB7DEB7A9
:10469000E6E00C94E434083582E0180730F46881D1
:1046A000C80188559E4F0E943F3521960F5F1F4FCE
:1046B000EACFCF93DF93C8EAD1E060E0CE010E9459
:1046C0003F352196C11584E0D807B9F7DF91CF9126
:1046D0000895A8E0B0E0EFE6F3E20C94C434F82EBD
:1046E00020E1821708F067C08FEF93E00E94213528
:1046F000811161C008EA11E0F11033C0FE0131966A
:104700005F0188E011928A95E9F76801FFEFCF1AFF
:10471000DF0AC8010E94213589831A82811509F4B4
:104720004AC08130C1F4780122E0E20EF11CC601DA
:104730000E9421358A838115F1F19FEF980F933004
:10474000E8F482E0C80ED11CC7010E9421358B839A
:10475000811589F11C8260E0C5010E9488258601CF
:10476000D4CF011584E0180731F1C8010E9421352A
:104770000F5F1F4F8111F5CFFA94BECF8430A1F4A3
:1047800002E010E0C701EFEFEE1AFE0A0E942135A9
:10479000F501E00FF11F8083811569F08C3731F44A
:1047A000FE01E00FF11F12826701D5CF0F5F1F4F8F
:1047B0000730110539F72896EAE00C94E034CF93DE
:1047C000DF93EB0186319C4719F50E94AC189D815F
:1047D0009115A1F08A7A91E0811101C090E0909347
:1047E0009402811549F085E30E94162A0E943F1920
:1047F00080E0DF91CF91089589E2F6CF8091940215
:10480000811521F085E30E941E2AF0CF89E2FBCFBB
:1048100081E0EFCFCF93DF93EC01FB018581811520
:1048200009F4CFC09E0130572332310508F0AFC0E4
:104830000E94C6199093F0028093EF02FE01E150AE
:10484000F047E232F10520F4EB58FA4C0C949C341A
:104850008091EF0281608093EF0290C08091F0021E
:1048600088608093F0028AC08091EF028260F3CF6B
:104870008091EF028460EFCF8091EF028860EBCFF0
:104880008091F0028160EDCF8091F0028260E9CFEB
:104890008091EF028061DFCF8091EF028062DBCFF9
:1048A0008091EF028064D7CF0E943F148091EF0285
:1048B0008068D1CF8091EF028C60CDCF8091F002E3
:1048C0008360CFCF8091EF028E7FC5CF8091F002C1
:1048D000877FC7CF8091EF028D7FBDCF8091EF02A0
:1048E0008B7FB9CF8091EF02877FB5CF8091F002A7
:1048F0008E7FB7CF8091F0028D7FB3CF8091EF0292
:104900008F7EA9CF8091EF028F7DA5CF8091EF029E
:104910008F7BA1CF0E943F148091EF028F779BCFB6
:104920008091EF02837F97CF8091F0028C7F99CFA7
:104930008091EF02992782FF939590FB82F990FB7B
:1049400083F989CF8091F002982F909590FB80F9A0
:1049500090FB81F986CF9091EF02892F8F7B96FF94
:10496000806479CF0E943F149091EF02892F97FBCA
:1049700087F9805870CF81E00E944E1A8091EF0233
:104980009091F0020E94CB190E943F1480E0DF91C9
:10499000CF91089580E0F0CF9091EF02892F8F7E24
:1049A00094FF806158CF9091EF02892F8E7F90FF06
:1049B000816051CF9091F002892F877F93FF8860AB
:1049C00050CF81E0E4CFA0E0B0E0E9EEF4E20C9457
:1049D000C534E82FF0E0ED59F54EB490282F269518
:1049E0002695269530E0F901ED5FF44E049187702D
:1049F00010E0082E02C0159507950A94E2F70170A1
:104A00001127F901ED50F54EE490F12C082E02C06B
:104A1000F594E7940A94E2F7E0FAEE24FF24E0F834
:104A2000F901ED51F54EC491D0E002C0D595C7957E
:104A30008A95E2F7C170DD27C62ED12C011511052C
:104A400049F5E114F10431F086EE0E945D11C601D2
:104A5000009771F5B6018B2D0E94C611C601009713
:104A600079F5E114F104A1F50115110531F081EE9C
:104A70000E949C11C6010097C9F5CD2B31F08CE244
:104A80000E94E011C114D104C9F5CDB7DEB7E9E049
:104A90000C94E13481EE0E945D11C601009789F209
:104AA000EFE9FFE03197F1F700C000000197F6CF82
:104AB000EFE9FFE03197F1F700C000000197C8CFA0
:104AC000EFE9FFE03197F1F700C000000197C7CF91
:104AD00086EE0E949C11C601009731F2EFE9FFE0DB
:104AE0003197F1F700C000000197F6CFEFE9FFE042
:104AF0003197F1F700C000000197BDCF8FE99FE02B
:104B00000197F1F700C0000091E0C91AD108BACFAF
:104B1000EF92FF921F93CF93DF93EC01162F8881C2
:104B2000811509F45AC0813009F053C08981813060
:104B300071F47E0182E0E80EF11C8A810E94E0118E
:104B4000E701812F90E00097E1F52196E8CF8230D0
:104B500041F47E01E2E0EE0EF11C8A810E945D11BB
:104B6000EFCF833041F47E01F2E0EF0EF11C8A8139
:104B70000E949C11E5CF843011F02196E2CF2A816A
:104B8000229680E090E06AE0AE014F5F5F4F2053D5
:104B9000330B2A30310550F0009799F2EFE9FFE02E
:104BA0003197F1F700C000000197F6CF689FF00140
:104BB000699FF00D1124C9018E0F9F1F2981EA0101
:104BC000E3CFEFE9FFE03197F1F700C00000019774
:104BD000BACF612F0E94E324B8CFDF91CF911F910C
:104BE000FF90EF9008950F931F93CF93DF93C42FFF
:104BF000D22FFC0185818115C9F0409397020E9454
:104C00001F2B909396028093950280E28C0F883040
:104C100040F4C77081E001C0880FCA95EAF70E948E
:104C2000E911DF91CF911F910F9108951091970293
:104C3000141333C080919502909196020E94372BF5
:104C4000883C910550F5C0E2CD0F1D17C1F080E200
:104C5000810F883040F4177081E001C0880F1A95E9
:104C6000EAF70E94F011C83050F491E08D2F877060
:104C700001C0990F8A95EAF7892F0E94E911802FC8
:104C80000E94E011C83068F6D77081E001C0880F3B
:104C9000DA95EAF70E94F011C4CF80E28C0F8830D9
:104CA00008F0BFCFC77081E001C0880FCA95EAF74E
:104CB000F1CF0F93DB01FC01E851FC47E730F10530
:104CC00098F5E956FA4C0C949C3406E221EE41EE3C
:104CD0006AE17CE7CD010E94F32580E00F91089501
:104CE00007E225EE45EE6BE17CE7F4CF06E221EE2C
:104CF00040EE68E17CE7EECF07E225EE44EE69E1A5
:104D00007CE7E8CF06E221EE42EE6CE17CE7E2CF01
:104D100007E225EE46EE6DE17CE7DCCF08E221E01C
:104D200045EE6EE17CE7D6CF15968C9181111092FD
:104D3000970281E0D3CFCF93DF939C01FB0127370C
:104D40008CE7380739F028373C47F1F081E0DF91F4
:104D5000CF9108958581811591F00E94CD260E9402
:104D6000C0140E94D326D82F0E94D026C82F0E949C
:104D7000CD264D2F6C2F0E94F11580E0E8CF0E94C8
:104D8000CD260E94CC14EDCF8581811519F00E94AB
:104D9000D026E5CF0E94D026F4CF80910C01089553
:104DA00080910B01089580910A01089584E290E0BA
:104DB0000E942135853289F485E290E00E942135F8
:104DC000853059F486E290E00E94213591E08130EF
:104DD00009F090E0892F8170089580E0FCCFCF9397
:104DE000C82F65E2811101C06FEF84E290E00E945C
:104DF0003F3565E0C11101C06FEF85E290E00E9490
:104E00003F3561E0C11101C06FEF86E290E00E9482
:104E10003F35CF910895089587E290E00E942135B3
:104E2000682F70E080E090E008950895CF93C62F3A
:104E30000E9415276C2F87E290E00E943F35CF91AA
:104E4000089580E00E94EF2660E070E0CB010E94B0
:104E500016270E94A4220E94592381E00E94EF2677
:104E600008950E940B270E940C270E9415270E947C
:104E7000D626811102C00E942127089508959C0121
:104E8000FB018581811551F0A90157574038510523
:104E900030F4822F0E94692380E0089581E0089514
:104EA0002FEFFC01208308950E945027089580E091
:104EB0000895CF92DF92FF920F931F93CF93DF93CA
:104EC000EC01F62E0E945727811110C0E881E150B5
:104ED000E331E0F4F0E0E256FA4C0C949C34198291
:104EE0008CE08A836F2DCE010E94582DDF91CF91E7
:104EF0001F910F91FF90DF90CF90089589818330AB
:104F0000F9F038F4813061F0823099F08FEF8883C6
:104F1000E9CF8430D9F71A821B821C821D82E2CF2E
:104F20000E942B2B0E94A2346A837B838C839D83F7
:104F3000D9CF0E940C271A821B821C826D83D2CF8C
:104F40000A8110E06E01F2E0CF0ED11C0430110591
:104F50004CF6802F0E94851DF601918382830F5F9E
:104F60001F4FF1CF8981823031F0853079F68A8107
:104F70000E943E27B7CF6A817B818C819D810E94F0
:104F8000A2340E941627AECF4B816A8189810E948C
:104F900066229827892798279D838C83A3CF2C810D
:104FA0003D813227232732274B816A8189810E94E4
:104FB000882298CF0E94A42295CF6F2DCE010E9407
:104FC000542790CF0E94112389838CCF0E941323F2
:104FD0009827892798279A83898384CF6B8170E0EB
:104FE00089819A81AE014C5F5F4F98278927982766
:104FF0000E94162377CF6B8170E089819A81AE0180
:105000004C5F5F4F9827892798270E9438236ACFE3
:105010000E94592367CF0E945422D6CF6B8170E043
:1050200089819A81AE014C5F5F4F98278927982725
:105030000E94C42257CF6B8170E089819A81AE01B2
:105040004C5F5F4F9827892798270E94E5224ACF17
:105050008091D50208959C019A9581159F4460F432
:105060003327C9010497849768F02B52310981E0F6
:105070002E30310528F40895211581E0380788F392
:1050800080E0089581E008950E942B2808950E94F1
:105090004428811581F0E0919E02F0E0EE0FFF1FA1
:1050A000E156FD4F808191818F3F2FE7920719F0E4
:1050B00001969183808308954F925F926F927F92C1
:1050C0008F929F92AF92BF92CF92DF92EF92FF9218
:1050D000CF93DF93CDB7DEB729970FB6F894DEBF35
:1050E0000FBECDBFC0909F02D090A0020D2C000C2F
:1050F000EE08FF0820910D0130E0EFE9F2E081E0D9
:1051000090E03296281739070CF0C8C06091D102A0
:105110007091D2028091D3029091D4020E94462BCA
:105120004B015C0180910D0189879601A701F7FE73
:1051300004C020E030E040E050E0A0E6BAEE0E947B
:10514000A9346D837E838F839887A98598ECA99F66
:1051500090011124032E000C440B550B280D391D12
:105160004A1D5B1DA5E0B0E00E94A9349B01AC0183
:105170006D817E818F8198850E945B3429013A017F
:10518000213F31054105510528F030EF432E512CC8
:10519000612C712C89EC88169104A104B10414F1DE
:1051A00080919E0290E0019669E170E00E94473490
:1051B00080939E02880F991FFC01E156FD4F1182DA
:1051C00010828985883108F087E18F5F80930D0117
:1051D0000E942B2B6093D1027093D2028093D30252
:1051E0009093D40292E0C916D104E104F1041CF4B6
:1051F000412C512C320160919A0270919B02809156
:105200009C0290919D020E94462B69837A838B8336
:105210009C8389819A81AB81BC8185369105A105EA
:10522000B10584F00E942B2B60939A0270939B022D
:1052300080939C0290939D028091D5028093990265
:1052400040929802909199029D83A0919802A91B87
:10525000BB0B29813A814B815C810E94B43424E6E6
:1052600030E040E050E00E947D34AD81A20FA09379
:10527000D50229960FB6F894DEBF0FBECDBFDF91E1
:10528000CF91FF90EF90DF90CF90BF90AF909F9025
:105290008F907F906F905F904F90089540815181E3
:1052A000052E000C660B770BC40ED51EE61EF71EEE
:1052B000019627CF9093DB028093DA020895E09164
:1052C000DA02F091DB02309729F00190F081E02DB5
:1052D0000995089580E008950E945F290895E0915E
:1052E000DA02F091DB02309721F00280F381E02DA9
:1052F00009950895A3E0B0E0E0E8F9E20C94CC341D
:105300009C018091D8029091D90282179307A1F055
:105310003093D9022093D802E091DA02F091DB02B7
:10532000309751F083E089833B832A830084F185A1
:10533000E02DCE01019609952396E2E00C94E83425
:10534000A3E0B0E0E6EAF9E20C94CC349C01809151
:10535000D6029091D70282179307A1F03093D7021B
:105360002093D602E091DA02F091DB02309751F0FF
:1053700084E089833B832A830084F185E02DCE017C
:10538000019609952396E2E00C94E83440910101DE
:10539000509102019A012E5F3F4F485F5F4F80E0BE
:1053A000F90190812F5F3F4F91118F5F4217530793
:1053B000B9F70895811571F0209101013091020132
:1053C000F9013296285F3F4F9191981729F0E21723
:1053D000F307D1F780E0089581E008959C01FC0176
:1053E00032968FEF90E04191461751F08F3F19F4BC
:1053F000411101C0892F9F5F9630A9F78F3F09F4B3
:105400000895280F311D87FD3A95F90162830895AB
:105410009C01FC013296285F3F4F8191861302C0A8
:10542000DF011E92E217F307C1F70895682F8091FC
:105430000101909102010E94EE290895682F809148
:105440000101909102010E94082A0895E091010152
:10545000F0910201329686E0DF011D928A95E9F70C
:10546000089508950E94312A08958F5F8093110155
:1054700060910E0170910F018091100190911101C6
:105480000E94322A089583E08093110160910E01F9
:1054900070910F0180911001909111010E94322AA8
:1054A00008950E94352A089581E08093110160914A
:1054B0000E0170910F0180911001909111010E94D5
:1054C000322A08950E94542A089591E0811101C062
:1054D00090E09093100160910E0170910F01809106
:1054E0001001909111010E94322A089580911001BB
:1054F000089580930F0160910E0170910F018091CA
:105500001001909111010E94322A089580910F019B
:10551000089580930E0160910E0170910F018091AA
:105520001001909111010E94322A089580910E017C
:105530000895089508950E949A2A08950895089557
:105540000E94992A0895CF930E949E2A0E94581E75
:105550000E949F2AC0E08C2F0E94851D892B31F468
:10556000CF5FC430C1F780E0CF91089581E0FCCFD8
:1055700085B7806885BF85B7806885BF08951F920D
:105580001FB61F9211248F939F93AF93BF93809167
:10559000DC02811113C08091070590910805A0914C
:1055A0000905B0910A054196A11DB11D809307051B
:1055B00090930805A0930905B0930A05BF91AF9198
:1055C0009F918F911F901FBE1F90189580910F057E
:1055D000843031F10E9466101092DC0288E190E084
:1055E00020E40FB6F894A895809360000FBE209336
:1055F000600083B7817F846083BF83B7816083BF8E
:105600007894889583B78E7F83BF0FB6F894A8955A
:1056100080916000886180936000109260000FBEEE
:1056200008950E943F140E946D10089582E084BD89
:1056300093E095BD9AEF97BD80936E0008952FB7C4
:10564000F8948091070590910805A0910905B09103
:105650000A052FBF08952FB7F89460910705709140
:1056600008058091090590910A052FBF08959C01B6
:105670004FB7F8948091070590910805A09109050E
:10568000B0910A054FBF821B930B08950F931F9390
:105690008B019C014FB7F894609107057091080544
:1056A0008091090590910A054FBF601B710B820B19
:1056B000930B1F910F91089578941F921FB61F921C
:1056C00011248F939F93AF93BF938091070590917F
:1056D0000805A0910905B0910A050196A11DB11D0B
:1056E0008093070590930805A0930905B0930A05D8
:1056F000BF91AF919F918F911F901FBE1F901895E2
:1057000087E797E7909301088093000888E19AE083
:105710000FB6F894A895809360000FBE9093600038
:10572000FFCF88E19AE00FB6F894A89580936000C7
:105730000FBE90936000FFCFFF920F931F93CF9304
:10574000DF93182FEB011092BC0084EA8093BC0019
:105750000E941F2B082FF92E8091BC0087FF28C0C4
:105760008091B900887F883029F08091B900887FC6
:105770008031A1F51093BB0084E88093BC000E94A7
:105780001F2B182F092F8091BC0087FF1FC020916D
:10579000B900287F80E090E0283199F081E090E026
:1057A000203411F480E090E091958195910909C031
:1057B000802F9F2D0E94372BC817D90768F68EEFD0
:1057C0009FEFCDB7DEB7E5E00C94E534812F902F45
:1057D0000E94372BC817D907B0F6F1CF8FEF9FEF94
:1057E000F0CF1092B9008CE08093B80008950F9329
:1057F0001F93CF93DF93EB018093BB0084E88093EA
:10580000BC000E941F2B182F092F8091BC0087FF1E
:1058100011C02091B900287F81E090E0283211F476
:1058200080E090E0919581959109DF91CF911F9152
:105830000F910895CF3FDC0741F3812F902F0E94F5
:10584000372BC817D90708F78EEF9FEFEECFA0E0F0
:10585000B0E0EDE2FCE20C94C134782EB62EA72E17
:105860006A01E9010E941F2B4C01C431D10528F1C6
:10587000CF3FDC0731F1CE0164E170E00E943334A8
:10588000F62EE72E6F2D7E2D872D0E949C2B8C01EE
:10589000892BD1F4EB2CFA2CCE0CDF1CEC14FD047C
:1058A00019F001151105D1F084E98093BC00C801FD
:1058B000CDB7DEB7EDE00C94DD34FF24F394E12C9A
:1058C000E1CF85E0F82EFBCFCF3FDC07D9F2C40152
:1058D0000E94372BC817D907A8F6DCCFBE01F70105
:1058E00081917F010E94F72B8C01D8CFA0E0B0E01E
:1058F000ECE7FCE20C94C134782EB62EA72E6A0198
:1059000089010E941F2B4C010431110518F10F3F32
:10591000100719F1C80164E170E00E943334EB0113
:10592000BE01872D0E949C2B7C01892BC1F4CB2DBD
:10593000DA2DCC0EDD1ECC15DD0519F0E114F104D5
:10594000C1F084E98093BC00C701CDB7DEB7EDE0BC
:105950000C94DD34C1E0D0E0E3CFC5E0FCCF0F3FD5
:105960001007F1F2C4010E94372B08171907C0F67F
:10597000DECFFE018491B8010E94F72B7C012196B5
:10598000DACFA0E0B0E0E7ECFCE20C94C034682E83
:10599000962E5A01690178010E941F2B782E892EBC
:1059A0000431110530F10F3F100731F1C80164E1F6
:1059B00070E00E943334162F072F612F702F862D31
:1059C0000E949C2BEC01892BC9F0FFEFEF16FF061C
:1059D000A1F3872D982D0E94372BE816F90668F75A
:1059E00084E98093BC00CE01CDB7DEB7EEE00C9425
:1059F000DC3411E000E0E1CF15E0FCCFB701892DE8
:105A00000E94F72BEC018501CA0CDB1C0C151D054F
:105A100039F3209729F7B701F80181918F010E948E
:105A2000F72BEC01F3CF08950895282FCB01BA018D
:105A300030910F053430D9F42F702093E9002FEF07
:105A40003091E80035FD06C035ED3A95F1F70000DC
:105A50002A95B1F72091E80025FF09C040E050E009
:105A60000E94512F8091E8008E778093E80008957E
:105A7000BC0143E050E084E00E94152D0895CF93CF
:105A8000DF93D82FC92F0E94762A48E050E06D2F6F
:105A90007C2F81E00E94152D88E0ED2FFC2FADEDCD
:105AA000B2E001900D928A95E1F7DF91CF910895D0
:105AB000792F603231F440E250E0682F82E00E949A
:105AC000152D0895A0E2B0E0E8E6FDE20C94CC3498
:105AD00080910F05843009F583E08093E90080917F
